{
  "contractName": "CertificateStore",
  "abi": [
    {
      "constant": true,
      "inputs": [],
      "name": "name",
      "outputs": [
        {
          "name": "",
          "type": "string"
        }
      ],
      "payable": false,
      "stateMutability": "view",
      "type": "function"
    },
    {
      "constant": true,
      "inputs": [],
      "name": "owner",
      "outputs": [
        {
          "name": "",
          "type": "address"
        }
      ],
      "payable": false,
      "stateMutability": "view",
      "type": "function"
    },
    {
      "constant": false,
      "inputs": [
        {
          "name": "newOwner",
          "type": "address"
        }
      ],
      "name": "transferOwnership",
      "outputs": [],
      "payable": false,
      "stateMutability": "nonpayable",
      "type": "function"
    },
    {
      "inputs": [
        {
          "name": "_name",
          "type": "string"
        }
      ],
      "payable": false,
      "stateMutability": "nonpayable",
      "type": "constructor"
    },
    {
      "anonymous": false,
      "inputs": [
        {
          "indexed": true,
          "name": "certificate",
          "type": "bytes32"
        }
      ],
      "name": "CertificateIssued",
      "type": "event"
    },
    {
      "anonymous": false,
      "inputs": [
        {
          "indexed": true,
          "name": "certificate",
          "type": "bytes32"
        }
      ],
      "name": "CertificateRevoked",
      "type": "event"
    },
    {
      "anonymous": false,
      "inputs": [
        {
          "indexed": true,
          "name": "previousOwner",
          "type": "address"
        },
        {
          "indexed": true,
          "name": "newOwner",
          "type": "address"
        }
      ],
      "name": "OwnershipTransferred",
      "type": "event"
    },
    {
      "constant": false,
      "inputs": [
        {
          "name": "certificate",
          "type": "bytes32"
        }
      ],
      "name": "issueCertificate",
      "outputs": [],
      "payable": false,
      "stateMutability": "nonpayable",
      "type": "function"
    },
    {
      "constant": true,
      "inputs": [
        {
          "name": "certificate",
          "type": "bytes32"
        }
      ],
      "name": "getIssuedBlock",
      "outputs": [
        {
          "name": "",
          "type": "uint256"
        }
      ],
      "payable": false,
      "stateMutability": "view",
      "type": "function"
    },
    {
      "constant": true,
      "inputs": [
        {
          "name": "certificate",
          "type": "bytes32"
        }
      ],
      "name": "isCertificateIssued",
      "outputs": [
        {
          "name": "",
          "type": "bool"
        }
      ],
      "payable": false,
      "stateMutability": "view",
      "type": "function"
    },
    {
      "constant": true,
      "inputs": [
        {
          "name": "certificate",
          "type": "bytes32"
        },
        {
          "name": "timestamp",
          "type": "uint256"
        }
      ],
      "name": "isCertificateIssuedBefore",
      "outputs": [
        {
          "name": "",
          "type": "bool"
        }
      ],
      "payable": false,
      "stateMutability": "view",
      "type": "function"
    },
    {
      "constant": false,
      "inputs": [
        {
          "name": "certificate",
          "type": "bytes32"
        }
      ],
      "name": "revokeCertificate",
      "outputs": [
        {
          "name": "",
          "type": "bool"
        }
      ],
      "payable": false,
      "stateMutability": "nonpayable",
      "type": "function"
    },
    {
      "constant": true,
      "inputs": [
        {
          "name": "certificate",
          "type": "bytes32"
        }
      ],
      "name": "isRevoked",
      "outputs": [
        {
          "name": "",
          "type": "bool"
        }
      ],
      "payable": false,
      "stateMutability": "view",
      "type": "function"
    },
    {
      "constant": true,
      "inputs": [
        {
          "name": "certificate",
          "type": "bytes32"
        },
        {
          "name": "timestamp",
          "type": "uint256"
        }
      ],
      "name": "isRevokedBefore",
      "outputs": [
        {
          "name": "",
          "type": "bool"
        }
      ],
      "payable": false,
      "stateMutability": "view",
      "type": "function"
    }
  ],
  "bytecode": "0x608060405234801561001057600080fd5b50604051610a0e380380610a0e83398101806040528101908080518201929190505050336000806101000a81548173ffffffffffffffffffffffffffffffffffffffff021916908373ffffffffffffffffffffffffffffffffffffffff1602179055508060019080519060200190610089929190610090565b5050610135565b828054600181600116156101000203166002900490600052602060002090601f016020900481019282601f106100d157805160ff19168380011785556100ff565b828001600101855582156100ff579182015b828111156100fe5782518255916020019190600101906100e3565b5b50905061010c9190610110565b5090565b61013291905b8082111561012e576000816000905550600101610116565b5090565b90565b6108ca806101446000396000f3006080604052600436106100a4576000357c0100000000000000000000000000000000000000000000000000000000900463ffffffff16806306fdde03146100a9578063339b6b3914610139578063416adc771461018c5780634294857f146101df5780635e6b4a47146102285780638da5cb5b14610271578063a1f81824146102c8578063bf40b904146102f9578063c6cbc52a1461033e578063f2fde38b14610387575b600080fd5b3480156100b557600080fd5b506100be6103ca565b6040518080602001828103825283818151815260200191508051906020019080838360005b838110156100fe5780820151818401526020810190506100e3565b50505050905090810190601f16801561012b5780820380516001836020036101000a031916815260200191505b509250505060405180910390f35b34801561014557600080fd5b50610172600480360381019080803560001916906020019092919080359060200190929190505050610468565b604051808215151515815260200191505060405180910390f35b34801561019857600080fd5b506101c56004803603810190808035600019169060200190929190803590602001909291905050506104b9565b604051808215151515815260200191505060405180910390f35b3480156101eb57600080fd5b5061020e6004803603810190808035600019169060200190929190505050610509565b604051808215151515815260200191505060405180910390f35b34801561023457600080fd5b506102576004803603810190808035600019169060200190929190505050610531565b604051808215151515815260200191505060405180910390f35b34801561027d57600080fd5b50610286610559565b604051808273ffffffffffffffffffffffffffffffffffffffff1673ffffffffffffffffffffffffffffffffffffffff16815260200191505060405180910390f35b3480156102d457600080fd5b506102f7600480360381019080803560001916906020019092919050505061057e565b005b34801561030557600080fd5b506103286004803603810190808035600019169060200190929190505050610644565b6040518082815260200191505060405180910390f35b34801561034a57600080fd5b5061036d600480360381019080803560001916906020019092919050505061067f565b604051808215151515815260200191505060405180910390f35b34801561039357600080fd5b506103c8600480360381019080803573ffffffffffffffffffffffffffffffffffffffff169060200190929190505050610749565b005b60018054600181600116156101000203166002900480601f0160208091040260200160405190810160405280929190818152602001828054600181600116156101000203166002900480156104605780601f1061043557610100808354040283529160200191610460565b820191906000526020600020905b81548152906001019060200180831161044357829003601f168201915b505050505081565b60008160036000856000191660001916815260200190815260200160002054111580156104b1575060006003600085600019166000191681526020019081526020016000205414155b905092915050565b60008060026000856000191660001916815260200190815260200160002054141580156105015750816002600085600019166000191681526020019081526020016000205411155b905092915050565b6000806003600084600019166000191681526020019081526020016000205414159050919050565b6000806002600084600019166000191681526020019081526020016000205414159050919050565b6000809054906101000a900473ffffffffffffffffffffffffffffffffffffffff1681565b6000809054906101000a900473ffffffffffffffffffffffffffffffffffffffff1673ffffffffffffffffffffffffffffffffffffffff163373ffffffffffffffffffffffffffffffffffffffff161415156105d957600080fd5b806105e381610531565b1515156105ef57600080fd5b436002600084600019166000191681526020019081526020016000208190555081600019167f615fe29dd761acef07dabe50d28b02874372a0a63ee7fa4221480b34b7ac14ba60405160405180910390a25050565b60008161065081610531565b151561065b57600080fd5b60026000846000191660001916815260200190815260200160002054915050919050565b60008060009054906101000a900473ffffffffffffffffffffffffffffffffffffffff1673ffffffffffffffffffffffffffffffffffffffff163373ffffffffffffffffffffffffffffffffffffffff161415156106dc57600080fd5b816106e681610509565b1515156106f257600080fd5b436003600085600019166000191681526020019081526020016000208190555082600019167f44d80a438cb4fa3b5aedbe551ce3d9382e37f446917b783e1dee70a03b4180e360405160405180910390a250919050565b6000809054906101000a900473ffffffffffffffffffffffffffffffffffffffff1673ffffffffffffffffffffffffffffffffffffffff163373ffffffffffffffffffffffffffffffffffffffff161415156107a457600080fd5b600073ffffffffffffffffffffffffffffffffffffffff168173ffffffffffffffffffffffffffffffffffffffff16141515156107e057600080fd5b8073ffffffffffffffffffffffffffffffffffffffff166000809054906101000a900473ffffffffffffffffffffffffffffffffffffffff1673ffffffffffffffffffffffffffffffffffffffff167f8be0079c531659141344cd1fd0a4f28419497f9722a3daafe3b4186f6b6457e060405160405180910390a3806000806101000a81548173ffffffffffffffffffffffffffffffffffffffff021916908373ffffffffffffffffffffffffffffffffffffffff160217905550505600a165627a7a723058206bcb78613eeb609abb30639c865f15ad2153a67669134bdcf1ce713311df42610029",
  "source": "pragma solidity ^0.4.17;\n\nimport \"zeppelin-solidity/contracts/ownership/Ownable.sol\";\n\n\ncontract CertificateStore is Ownable {\n  string public name;\n\n  /// A mapping of the certificate hash to the block number that was issued\n  mapping(bytes32 => uint) certificateIssued;\n  /// A mapping of the hash of the claim being revoked to the revocation block number\n  mapping(bytes32 => uint) certificateRevoked;\n\n  event CertificateIssued(bytes32 indexed certificate);\n  event CertificateRevoked(\n    bytes32 indexed certificate\n  );\n\n  function CertificateStore(\n    string _name\n  ) public\n  {\n    name = _name;\n  }\n\n  function issueCertificate(\n    bytes32 certificate\n  ) public onlyOwner onlyNotIssuedCertificate(certificate)\n  {\n    certificateIssued[certificate] = block.number;\n    CertificateIssued(certificate);\n  }\n\n  function getIssuedBlock(\n    bytes32 certificate\n  ) public onlyIssuedCertificate(certificate) view returns (uint)\n  {\n    return certificateIssued[certificate];\n  }\n\n  function isCertificateIssued(\n    bytes32 certificate\n  ) public view returns (bool)\n  {\n    return (certificateIssued[certificate] != 0);\n  }\n\n  function isCertificateIssuedBefore(\n    bytes32 certificate,\n    uint timestamp\n  ) public view returns (bool)\n  {\n    return certificateIssued[certificate] != 0 && certificateIssued[certificate] <= timestamp;\n  }\n\n  function revokeCertificate(\n    bytes32 certificate\n  ) public onlyOwner onlyNotRevoked(certificate) returns (bool)\n  {\n    certificateRevoked[certificate] = block.number;\n    CertificateRevoked(certificate);\n  }\n\n  function isRevoked(\n    bytes32 certificate\n  ) public view returns (bool)\n  {\n    return certificateRevoked[certificate] != 0;\n  }\n\n  function isRevokedBefore(\n    bytes32 certificate,\n    uint timestamp\n  ) public view returns (bool)\n  {\n    return certificateRevoked[certificate] <= timestamp && certificateRevoked[certificate] != 0;\n  }\n\n  modifier onlyIssuedCertificate(bytes32 certificate) {\n    require(isCertificateIssued(certificate));\n    _;\n  }\n\n  modifier onlyNotIssuedCertificate(bytes32 certificate) {\n    require(!isCertificateIssued(certificate));\n    _;\n  }\n\n  modifier onlyNotRevoked(bytes32 claim) {\n    require(!isRevoked(claim));\n    _;\n  }\n}\n",
  "sourcePath": "/Users/raymondyeh/Desktop/DLT/certificate-contract/contracts/CertificateStore.sol",
  "compiler": {
    "name": "solc",
    "version": "0.4.24+commit.e67f0147.Emscripten.clang"
  },
  "schemaVersion": "2.0.1",
  "updatedAt": "2018-09-21T02:36:32.721Z"
}