{
  "contractName": "CertificateStore",
  "abi": [
    {
      "constant": true,
      "inputs": [],
      "name": "name",
      "outputs": [
        {
          "name": "",
          "type": "string"
        }
      ],
      "payable": false,
      "stateMutability": "view",
      "type": "function"
    },
    {
      "constant": true,
      "inputs": [],
      "name": "owner",
      "outputs": [
        {
          "name": "",
          "type": "address"
        }
      ],
      "payable": false,
      "stateMutability": "view",
      "type": "function"
    },
    {
      "constant": false,
      "inputs": [
        {
          "name": "newOwner",
          "type": "address"
        }
      ],
      "name": "transferOwnership",
      "outputs": [],
      "payable": false,
      "stateMutability": "nonpayable",
      "type": "function"
    },
    {
      "inputs": [
        {
          "name": "_name",
          "type": "string"
        }
      ],
      "payable": false,
      "stateMutability": "nonpayable",
      "type": "constructor"
    },
    {
      "anonymous": false,
      "inputs": [
        {
          "indexed": true,
          "name": "certificate",
          "type": "bytes32"
        }
      ],
      "name": "CertificateIssued",
      "type": "event"
    },
    {
      "anonymous": false,
      "inputs": [
        {
          "indexed": true,
          "name": "certificate",
          "type": "bytes32"
        }
      ],
      "name": "CertificateRevoked",
      "type": "event"
    },
    {
      "anonymous": false,
      "inputs": [
        {
          "indexed": true,
          "name": "previousOwner",
          "type": "address"
        },
        {
          "indexed": true,
          "name": "newOwner",
          "type": "address"
        }
      ],
      "name": "OwnershipTransferred",
      "type": "event"
    },
    {
      "constant": false,
      "inputs": [
        {
          "name": "certificate",
          "type": "bytes32"
        }
      ],
      "name": "issueCertificate",
      "outputs": [],
      "payable": false,
      "stateMutability": "nonpayable",
      "type": "function"
    },
    {
      "constant": true,
      "inputs": [
        {
          "name": "certificate",
          "type": "bytes32"
        }
      ],
      "name": "getIssuedBlock",
      "outputs": [
        {
          "name": "",
          "type": "uint256"
        }
      ],
      "payable": false,
      "stateMutability": "view",
      "type": "function"
    },
    {
      "constant": true,
      "inputs": [
        {
          "name": "certificate",
          "type": "bytes32"
        }
      ],
      "name": "isCertificateIssued",
      "outputs": [
        {
          "name": "",
          "type": "bool"
        }
      ],
      "payable": false,
      "stateMutability": "view",
      "type": "function"
    },
    {
      "constant": false,
      "inputs": [
        {
          "name": "certificate",
          "type": "bytes32"
        }
      ],
      "name": "revokeCertificate",
      "outputs": [
        {
          "name": "",
          "type": "bool"
        }
      ],
      "payable": false,
      "stateMutability": "nonpayable",
      "type": "function"
    },
    {
      "constant": true,
      "inputs": [
        {
          "name": "certificate",
          "type": "bytes32"
        }
      ],
      "name": "isRevoked",
      "outputs": [
        {
          "name": "",
          "type": "bool"
        }
      ],
      "payable": false,
      "stateMutability": "view",
      "type": "function"
    }
  ],
  "bytecode": "0x6060604052341561000f57600080fd5b60405161086938038061086983398101604052808051820191905050336000806101000a81548173ffffffffffffffffffffffffffffffffffffffff021916908373ffffffffffffffffffffffffffffffffffffffff1602179055508060019080519060200190610081929190610088565b505061012d565b828054600181600116156101000203166002900490600052602060002090601f016020900481019282601f106100c957805160ff19168380011785556100f7565b828001600101855582156100f7579182015b828111156100f65782518255916020019190600101906100db565b5b5090506101049190610108565b5090565b61012a91905b8082111561012657600081600090555060010161010e565b5090565b90565b61072d8061013c6000396000f30060606040526004361061008e576000357c0100000000000000000000000000000000000000000000000000000000900463ffffffff16806306fdde03146100935780634294857f146101215780635e6b4a47146101605780638da5cb5b1461019f578063a1f81824146101f4578063bf40b9041461021b578063c6cbc52a14610256578063f2fde38b14610295575b600080fd5b341561009e57600080fd5b6100a66102ce565b6040518080602001828103825283818151815260200191508051906020019080838360005b838110156100e65780820151818401526020810190506100cb565b50505050905090810190601f1680156101135780820380516001836020036101000a031916815260200191505b509250505060405180910390f35b341561012c57600080fd5b61014660048080356000191690602001909190505061036c565b604051808215151515815260200191505060405180910390f35b341561016b57600080fd5b610185600480803560001916906020019091905050610394565b604051808215151515815260200191505060405180910390f35b34156101aa57600080fd5b6101b26103bc565b604051808273ffffffffffffffffffffffffffffffffffffffff1673ffffffffffffffffffffffffffffffffffffffff16815260200191505060405180910390f35b34156101ff57600080fd5b6102196004808035600019169060200190919050506103e1565b005b341561022657600080fd5b6102406004808035600019169060200190919050506104a7565b6040518082815260200191505060405180910390f35b341561026157600080fd5b61027b6004808035600019169060200190919050506104e2565b604051808215151515815260200191505060405180910390f35b34156102a057600080fd5b6102cc600480803573ffffffffffffffffffffffffffffffffffffffff169060200190919050506105ac565b005b60018054600181600116156101000203166002900480601f0160208091040260200160405190810160405280929190818152602001828054600181600116156101000203166002900480156103645780601f1061033957610100808354040283529160200191610364565b820191906000526020600020905b81548152906001019060200180831161034757829003601f168201915b505050505081565b6000806003600084600019166000191681526020019081526020016000205414159050919050565b6000806002600084600019166000191681526020019081526020016000205414159050919050565b6000809054906101000a900473ffffffffffffffffffffffffffffffffffffffff1681565b6000809054906101000a900473ffffffffffffffffffffffffffffffffffffffff1673ffffffffffffffffffffffffffffffffffffffff163373ffffffffffffffffffffffffffffffffffffffff1614151561043c57600080fd5b8061044681610394565b15151561045257600080fd5b436002600084600019166000191681526020019081526020016000208190555081600019167f615fe29dd761acef07dabe50d28b02874372a0a63ee7fa4221480b34b7ac14ba60405160405180910390a25050565b6000816104b381610394565b15156104be57600080fd5b60026000846000191660001916815260200190815260200160002054915050919050565b60008060009054906101000a900473ffffffffffffffffffffffffffffffffffffffff1673ffffffffffffffffffffffffffffffffffffffff163373ffffffffffffffffffffffffffffffffffffffff1614151561053f57600080fd5b816105498161036c565b15151561055557600080fd5b436003600085600019166000191681526020019081526020016000208190555082600019167f44d80a438cb4fa3b5aedbe551ce3d9382e37f446917b783e1dee70a03b4180e360405160405180910390a250919050565b6000809054906101000a900473ffffffffffffffffffffffffffffffffffffffff1673ffffffffffffffffffffffffffffffffffffffff163373ffffffffffffffffffffffffffffffffffffffff1614151561060757600080fd5b600073ffffffffffffffffffffffffffffffffffffffff168173ffffffffffffffffffffffffffffffffffffffff161415151561064357600080fd5b8073ffffffffffffffffffffffffffffffffffffffff166000809054906101000a900473ffffffffffffffffffffffffffffffffffffffff1673ffffffffffffffffffffffffffffffffffffffff167f8be0079c531659141344cd1fd0a4f28419497f9722a3daafe3b4186f6b6457e060405160405180910390a3806000806101000a81548173ffffffffffffffffffffffffffffffffffffffff021916908373ffffffffffffffffffffffffffffffffffffffff160217905550505600a165627a7a723058202648687e291a70f4407b3a9d875f96024f5346aff086da099607a779dbaeb3590029",
  "source": "pragma solidity ^0.4.17;\n\nimport \"zeppelin-solidity/contracts/ownership/Ownable.sol\";\n\n\ncontract CertificateStore is Ownable {\n  string public name;\n\n  /// A mapping of the certificate hash to the block number that was issued\n  mapping(bytes32 => uint) certificateIssued;\n  /// A mapping of the hash of the claim being revoked to the revocation block number\n  mapping(bytes32 => uint) certificateRevoked;\n\n  event CertificateIssued(bytes32 indexed certificate);\n  event CertificateRevoked(\n    bytes32 indexed certificate\n  );\n\n  function CertificateStore(\n    string _name\n  ) public\n  {\n    name = _name;\n  }\n\n  function issueCertificate(\n    bytes32 certificate\n  ) public onlyOwner onlyNotIssuedCertificate(certificate)\n  {\n    certificateIssued[certificate] = block.number;\n    CertificateIssued(certificate);\n  }\n\n  function getIssuedBlock(\n    bytes32 certificate\n  ) public onlyIssuedCertificate(certificate) view returns (uint)\n  {\n    return certificateIssued[certificate];\n  }\n\n  function isCertificateIssued(\n    bytes32 certificate\n  ) public view returns (bool)\n  {\n    return (certificateIssued[certificate] != 0);\n  }\n\n  function revokeCertificate(\n    bytes32 certificate\n  ) public onlyOwner onlyNotRevoked(certificate) returns (bool)\n  {\n    certificateRevoked[certificate] = block.number;\n    CertificateRevoked(certificate);\n  }\n\n  function isRevoked(\n    bytes32 certificate\n  ) public view returns (bool)\n  {\n    return certificateRevoked[certificate] != 0;\n  }\n\n  modifier onlyIssuedCertificate(bytes32 certificate) {\n    require(isCertificateIssued(certificate));\n    _;\n  }\n\n  modifier onlyNotIssuedCertificate(bytes32 certificate) {\n    require(!isCertificateIssued(certificate));\n    _;\n  }\n\n  modifier onlyNotRevoked(bytes32 claim) {\n    require(!isRevoked(claim));\n    _;\n  }\n}\n",
  "sourcePath": "/Users/raymondyeh/Desktop/certificate-contract/contracts/CertificateStore.sol",
  "compiler": {
    "name": "solc",
    "version": "0.4.19+commit.c4cbbb05.Emscripten.clang"
  },
  "schemaVersion": "1.0.1",
  "updatedAt": "2018-03-19T06:43:55.718Z"
}