{
  "contractName": "CertificateStore",
  "abi": [
    {
      "constant": true,
      "inputs": [],
      "name": "name",
      "outputs": [
        {
          "name": "",
          "type": "string"
        }
      ],
      "payable": false,
      "stateMutability": "view",
      "type": "function"
    },
    {
      "constant": true,
      "inputs": [],
      "name": "verificationUrl",
      "outputs": [
        {
          "name": "",
          "type": "string"
        }
      ],
      "payable": false,
      "stateMutability": "view",
      "type": "function"
    },
    {
      "constant": true,
      "inputs": [],
      "name": "owner",
      "outputs": [
        {
          "name": "",
          "type": "address"
        }
      ],
      "payable": false,
      "stateMutability": "view",
      "type": "function"
    },
    {
      "constant": false,
      "inputs": [
        {
          "name": "newOwner",
          "type": "address"
        }
      ],
      "name": "transferOwnership",
      "outputs": [],
      "payable": false,
      "stateMutability": "nonpayable",
      "type": "function"
    },
    {
      "inputs": [
        {
          "name": "_verificationUrl",
          "type": "string"
        },
        {
          "name": "_name",
          "type": "string"
        }
      ],
      "payable": false,
      "stateMutability": "nonpayable",
      "type": "constructor"
    },
    {
      "anonymous": false,
      "inputs": [
        {
          "indexed": true,
          "name": "batchRoot",
          "type": "bytes32"
        }
      ],
      "name": "BatchIssued",
      "type": "event"
    },
    {
      "anonymous": false,
      "inputs": [
        {
          "indexed": true,
          "name": "claim",
          "type": "bytes32"
        },
        {
          "indexed": true,
          "name": "batchRoot",
          "type": "bytes32"
        },
        {
          "indexed": true,
          "name": "revocationReason",
          "type": "uint256"
        }
      ],
      "name": "ClaimRevoked",
      "type": "event"
    },
    {
      "anonymous": false,
      "inputs": [
        {
          "indexed": true,
          "name": "previousOwner",
          "type": "address"
        },
        {
          "indexed": true,
          "name": "newOwner",
          "type": "address"
        }
      ],
      "name": "OwnershipTransferred",
      "type": "event"
    },
    {
      "constant": false,
      "inputs": [
        {
          "name": "batchRoot",
          "type": "bytes32"
        }
      ],
      "name": "issueBatch",
      "outputs": [],
      "payable": false,
      "stateMutability": "nonpayable",
      "type": "function"
    },
    {
      "constant": true,
      "inputs": [
        {
          "name": "batchRoot",
          "type": "bytes32"
        }
      ],
      "name": "getIssuedBlock",
      "outputs": [
        {
          "name": "",
          "type": "uint256"
        }
      ],
      "payable": false,
      "stateMutability": "view",
      "type": "function"
    },
    {
      "constant": true,
      "inputs": [
        {
          "name": "batchRoot",
          "type": "bytes32"
        }
      ],
      "name": "isBatchIssued",
      "outputs": [
        {
          "name": "",
          "type": "bool"
        }
      ],
      "payable": false,
      "stateMutability": "view",
      "type": "function"
    },
    {
      "constant": false,
      "inputs": [
        {
          "name": "batchRoot",
          "type": "bytes32"
        },
        {
          "name": "claim",
          "type": "bytes32"
        },
        {
          "name": "reason",
          "type": "uint256"
        }
      ],
      "name": "revokeClaim",
      "outputs": [
        {
          "name": "",
          "type": "bool"
        }
      ],
      "payable": false,
      "stateMutability": "nonpayable",
      "type": "function"
    },
    {
      "constant": true,
      "inputs": [
        {
          "name": "claim",
          "type": "bytes32"
        }
      ],
      "name": "isRevoked",
      "outputs": [
        {
          "name": "",
          "type": "bool"
        }
      ],
      "payable": false,
      "stateMutability": "view",
      "type": "function"
    }
  ],
  "bytecode": "0x6060604052341561000f57600080fd5b604051610a3a380380610a3a83398101604052808051820191906020018051820191905050336000806101000a81548173ffffffffffffffffffffffffffffffffffffffff021916908373ffffffffffffffffffffffffffffffffffffffff160217905550816001908051906020019061008a9291906100a9565b5080600290805190602001906100a19291906100a9565b50505061014e565b828054600181600116156101000203166002900490600052602060002090601f016020900481019282601f106100ea57805160ff1916838001178555610118565b82800160010185558215610118579182015b828111156101175782518255916020019190600101906100fc565b5b5090506101259190610129565b5090565b61014b91905b8082111561014757600081600090555060010161012f565b5090565b90565b6108dd8061015d6000396000f300606060405260043610610099576000357c0100000000000000000000000000000000000000000000000000000000900463ffffffff16806306fdde031461009e5780634294857f1461012c57806353cf74dd1461016b5780635b446099146101f95780636932aa381461024e5780638da5cb5b146102755780639bced90d146102ca578063bf40b90414610309578063f2fde38b14610344575b600080fd5b34156100a957600080fd5b6100b161037d565b6040518080602001828103825283818151815260200191508051906020019080838360005b838110156100f15780820151818401526020810190506100d6565b50505050905090810190601f16801561011e5780820380516001836020036101000a031916815260200191505b509250505060405180910390f35b341561013757600080fd5b61015160048080356000191690602001909190505061041b565b604051808215151515815260200191505060405180910390f35b341561017657600080fd5b61017e610446565b6040518080602001828103825283818151815260200191508051906020019080838360005b838110156101be5780820151818401526020810190506101a3565b50505050905090810190601f1680156101eb5780820380516001836020036101000a031916815260200191505b509250505060405180910390f35b341561020457600080fd5b610234600480803560001916906020019091908035600019169060200190919080359060200190919050506104e4565b604051808215151515815260200191505060405180910390f35b341561025957600080fd5b61027360048080356000191690602001909190505061060e565b005b341561028057600080fd5b6102886106d4565b604051808273ffffffffffffffffffffffffffffffffffffffff1673ffffffffffffffffffffffffffffffffffffffff16815260200191505060405180910390f35b34156102d557600080fd5b6102ef6004808035600019169060200190919050506106f9565b604051808215151515815260200191505060405180910390f35b341561031457600080fd5b61032e600480803560001916906020019091905050610721565b6040518082815260200191505060405180910390f35b341561034f57600080fd5b61037b600480803573ffffffffffffffffffffffffffffffffffffffff1690602001909190505061075c565b005b60028054600181600116156101000203166002900480601f0160208091040260200160405190810160405280929190818152602001828054600181600116156101000203166002900480156104135780601f106103e857610100808354040283529160200191610413565b820191906000526020600020905b8154815290600101906020018083116103f657829003601f168201915b505050505081565b6000806004600084600019166000191681526020019081526020016000206001015414159050919050565b60018054600181600116156101000203166002900480601f0160208091040260200160405190810160405280929190818152602001828054600181600116156101000203166002900480156104dc5780601f106104b1576101008083540402835291602001916104dc565b820191906000526020600020905b8154815290600101906020018083116104bf57829003601f168201915b505050505081565b60008060009054906101000a900473ffffffffffffffffffffffffffffffffffffffff1673ffffffffffffffffffffffffffffffffffffffff163373ffffffffffffffffffffffffffffffffffffffff1614151561054157600080fd5b8361054b816106f9565b151561055657600080fd5b836105608161041b565b15151561056c57600080fd5b606060405190810160405280876000191681526020014381526020018581525060046000876000191660001916815260200190815260200160002060008201518160000190600019169055602082015181600101556040820151816002015590505083866000191686600019167f8b7dfdbd516c74224eaf4cde20bce109a6145a69fd9c541458afd725249ec76560405160405180910390a450509392505050565b6000809054906101000a900473ffffffffffffffffffffffffffffffffffffffff1673ffffffffffffffffffffffffffffffffffffffff163373ffffffffffffffffffffffffffffffffffffffff1614151561066957600080fd5b80610673816106f9565b15151561067f57600080fd5b436003600084600019166000191681526020019081526020016000208190555081600019167fd46c9cfe26ef3f75ba4182d99d1cef87d8973e2b664e14cf3275d014d8c7c31760405160405180910390a25050565b6000809054906101000a900473ffffffffffffffffffffffffffffffffffffffff1681565b6000806003600084600019166000191681526020019081526020016000205414159050919050565b60008161072d816106f9565b151561073857600080fd5b60036000846000191660001916815260200190815260200160002054915050919050565b6000809054906101000a900473ffffffffffffffffffffffffffffffffffffffff1673ffffffffffffffffffffffffffffffffffffffff163373ffffffffffffffffffffffffffffffffffffffff161415156107b757600080fd5b600073ffffffffffffffffffffffffffffffffffffffff168173ffffffffffffffffffffffffffffffffffffffff16141515156107f357600080fd5b8073ffffffffffffffffffffffffffffffffffffffff166000809054906101000a900473ffffffffffffffffffffffffffffffffffffffff1673ffffffffffffffffffffffffffffffffffffffff167f8be0079c531659141344cd1fd0a4f28419497f9722a3daafe3b4186f6b6457e060405160405180910390a3806000806101000a81548173ffffffffffffffffffffffffffffffffffffffff021916908373ffffffffffffffffffffffffffffffffffffffff160217905550505600a165627a7a72305820bdd25a8ffa9038dfb3026716d1d89bc3d4f71de24e2e65982c00bb41264f6c590029",
  "source": "pragma solidity ^0.4.17;\n\nimport \"zeppelin-solidity/contracts/ownership/Ownable.sol\";\n\n\ncontract CertificateStore is Ownable {\n  string public verificationUrl;\n  string public name;\n\n  /// A mapping of the certificate batch merkle root to the block number that was issued\n  mapping(bytes32 => uint) batchIssued;\n  /// A mapping of the hash of the claim being revoked to a revocation struct\n  mapping(bytes32 => Revocation) claimRevoked;\n\n  event BatchIssued(bytes32 indexed batchRoot);\n  event ClaimRevoked(\n    bytes32 indexed claim,\n    bytes32 indexed batchRoot,\n    uint indexed revocationReason\n  );\n\n  /// A recovation\n  ///\n  /// See https://www.imsglobal.org/sites/default/files/Badges/OBv2p0/index.html#RevocationList\n  /// for the details needed\n  struct Revocation {\n    // Merkle root of the batch\n    bytes32 batchRoot;\n    /// Block number of revocation\n    uint blockNumber;\n    uint revocationReason;\n  }\n\n  function CertificateStore(\n    string _verificationUrl,\n    string _name\n  ) public\n  {\n    verificationUrl = _verificationUrl;\n    name = _name;\n  }\n\n  function issueBatch(\n    bytes32 batchRoot\n  ) public onlyOwner onlyNotIssuedBatch(batchRoot)\n  {\n    batchIssued[batchRoot] = block.number;\n    BatchIssued(batchRoot);\n  }\n\n  function getIssuedBlock(\n    bytes32 batchRoot\n  ) public onlyIssuedBatch(batchRoot) view returns (uint)\n  {\n    return batchIssued[batchRoot];\n  }\n\n  function isBatchIssued(\n    bytes32 batchRoot\n  ) public view returns (bool)\n  {\n    return (batchIssued[batchRoot] != 0);\n  }\n\n  function revokeClaim(\n    bytes32 batchRoot,\n    bytes32 claim,\n    uint reason\n  ) public onlyOwner onlyIssuedBatch(batchRoot) onlyNotRevoked(claim) returns (bool)\n  {\n    claimRevoked[claim] = Revocation(batchRoot, block.number, reason);\n    ClaimRevoked(claim, batchRoot, reason);\n  }\n\n  function isRevoked(\n    bytes32 claim\n  ) public view returns (bool)\n  {\n    return claimRevoked[claim].blockNumber != 0;\n  }\n\n  modifier onlyIssuedBatch(bytes32 batchRoot) {\n    require(isBatchIssued(batchRoot));\n    _;\n  }\n\n  modifier onlyNotIssuedBatch(bytes32 batchRoot) {\n    require(!isBatchIssued(batchRoot));\n    _;\n  }\n\n  modifier onlyNotRevoked(bytes32 claim) {\n    require(!isRevoked(claim));\n    _;\n  }\n}\n",
  "sourcePath": "/Users/raymondyeh/Desktop/certificate-contract/contracts/CertificateStore.sol",
  "compiler": {
    "name": "solc",
    "version": "0.4.19+commit.c4cbbb05.Emscripten.clang"
  },
  "schemaVersion": "1.0.1",
  "updatedAt": "2018-02-08T08:26:00.369Z"
}