{
  "contractName": "CertificateStore",
  "abi": [
    {
      "constant": true,
      "inputs": [],
      "name": "name",
      "outputs": [
        {
          "name": "",
          "type": "string"
        }
      ],
      "payable": false,
      "stateMutability": "view",
      "type": "function"
    },
    {
      "constant": true,
      "inputs": [],
      "name": "verificationUrl",
      "outputs": [
        {
          "name": "",
          "type": "string"
        }
      ],
      "payable": false,
      "stateMutability": "view",
      "type": "function"
    },
    {
      "constant": true,
      "inputs": [],
      "name": "owner",
      "outputs": [
        {
          "name": "",
          "type": "address"
        }
      ],
      "payable": false,
      "stateMutability": "view",
      "type": "function"
    },
    {
      "constant": false,
      "inputs": [
        {
          "name": "newOwner",
          "type": "address"
        }
      ],
      "name": "transferOwnership",
      "outputs": [],
      "payable": false,
      "stateMutability": "nonpayable",
      "type": "function"
    },
    {
      "inputs": [
        {
          "name": "_verificationUrl",
          "type": "string"
        },
        {
          "name": "_name",
          "type": "string"
        }
      ],
      "payable": false,
      "stateMutability": "nonpayable",
      "type": "constructor"
    },
    {
      "anonymous": false,
      "inputs": [
        {
          "indexed": true,
          "name": "certificate",
          "type": "bytes32"
        }
      ],
      "name": "CertificateIssued",
      "type": "event"
    },
    {
      "anonymous": false,
      "inputs": [
        {
          "indexed": true,
          "name": "certificate",
          "type": "bytes32"
        },
        {
          "indexed": true,
          "name": "revocationReason",
          "type": "uint256"
        }
      ],
      "name": "CertificateRevoked",
      "type": "event"
    },
    {
      "anonymous": false,
      "inputs": [
        {
          "indexed": true,
          "name": "previousOwner",
          "type": "address"
        },
        {
          "indexed": true,
          "name": "newOwner",
          "type": "address"
        }
      ],
      "name": "OwnershipTransferred",
      "type": "event"
    },
    {
      "constant": false,
      "inputs": [
        {
          "name": "certificate",
          "type": "bytes32"
        }
      ],
      "name": "issueCertificate",
      "outputs": [],
      "payable": false,
      "stateMutability": "nonpayable",
      "type": "function"
    },
    {
      "constant": true,
      "inputs": [
        {
          "name": "certificate",
          "type": "bytes32"
        }
      ],
      "name": "getIssuedBlock",
      "outputs": [
        {
          "name": "",
          "type": "uint256"
        }
      ],
      "payable": false,
      "stateMutability": "view",
      "type": "function"
    },
    {
      "constant": true,
      "inputs": [
        {
          "name": "certificate",
          "type": "bytes32"
        }
      ],
      "name": "isCertificateIssued",
      "outputs": [
        {
          "name": "",
          "type": "bool"
        }
      ],
      "payable": false,
      "stateMutability": "view",
      "type": "function"
    },
    {
      "constant": false,
      "inputs": [
        {
          "name": "certificate",
          "type": "bytes32"
        },
        {
          "name": "reason",
          "type": "uint256"
        }
      ],
      "name": "revokeCertificate",
      "outputs": [
        {
          "name": "",
          "type": "bool"
        }
      ],
      "payable": false,
      "stateMutability": "nonpayable",
      "type": "function"
    },
    {
      "constant": true,
      "inputs": [
        {
          "name": "certificate",
          "type": "bytes32"
        }
      ],
      "name": "isRevoked",
      "outputs": [
        {
          "name": "",
          "type": "bool"
        }
      ],
      "payable": false,
      "stateMutability": "view",
      "type": "function"
    }
  ],
  "bytecode": "0x6060604052341561000f57600080fd5b604051610a11380380610a1183398101604052808051820191906020018051820191905050336000806101000a81548173ffffffffffffffffffffffffffffffffffffffff021916908373ffffffffffffffffffffffffffffffffffffffff160217905550816001908051906020019061008a9291906100a9565b5080600290805190602001906100a19291906100a9565b50505061014e565b828054600181600116156101000203166002900490600052602060002090601f016020900481019282601f106100ea57805160ff1916838001178555610118565b82800160010185558215610118579182015b828111156101175782518255916020019190600101906100fc565b5b5090506101259190610129565b5090565b61014b91905b8082111561014757600081600090555060010161012f565b5090565b90565b6108b48061015d6000396000f300606060405260043610610099576000357c0100000000000000000000000000000000000000000000000000000000900463ffffffff16806306fdde031461009e5780634294857f1461012c57806353cf74dd1461016b5780635e6b4a47146101f95780638da5cb5b14610238578063a1f818241461028d578063a46f853a146102b4578063bf40b904146102fc578063f2fde38b14610337575b600080fd5b34156100a957600080fd5b6100b1610370565b6040518080602001828103825283818151815260200191508051906020019080838360005b838110156100f15780820151818401526020810190506100d6565b50505050905090810190601f16801561011e5780820380516001836020036101000a031916815260200191505b509250505060405180910390f35b341561013757600080fd5b61015160048080356000191690602001909190505061040e565b604051808215151515815260200191505060405180910390f35b341561017657600080fd5b61017e610439565b6040518080602001828103825283818151815260200191508051906020019080838360005b838110156101be5780820151818401526020810190506101a3565b50505050905090810190601f1680156101eb5780820380516001836020036101000a031916815260200191505b509250505060405180910390f35b341561020457600080fd5b61021e6004808035600019169060200190919050506104d7565b604051808215151515815260200191505060405180910390f35b341561024357600080fd5b61024b6104ff565b604051808273ffffffffffffffffffffffffffffffffffffffff1673ffffffffffffffffffffffffffffffffffffffff16815260200191505060405180910390f35b341561029857600080fd5b6102b2600480803560001916906020019091905050610524565b005b34156102bf57600080fd5b6102e26004808035600019169060200190919080359060200190919050506105ea565b604051808215151515815260200191505060405180910390f35b341561030757600080fd5b6103216004808035600019169060200190919050506106f8565b6040518082815260200191505060405180910390f35b341561034257600080fd5b61036e600480803573ffffffffffffffffffffffffffffffffffffffff16906020019091905050610733565b005b60028054600181600116156101000203166002900480601f0160208091040260200160405190810160405280929190818152602001828054600181600116156101000203166002900480156104065780601f106103db57610100808354040283529160200191610406565b820191906000526020600020905b8154815290600101906020018083116103e957829003601f168201915b505050505081565b6000806004600084600019166000191681526020019081526020016000206001015414159050919050565b60018054600181600116156101000203166002900480601f0160208091040260200160405190810160405280929190818152602001828054600181600116156101000203166002900480156104cf5780601f106104a4576101008083540402835291602001916104cf565b820191906000526020600020905b8154815290600101906020018083116104b257829003601f168201915b505050505081565b6000806003600084600019166000191681526020019081526020016000205414159050919050565b6000809054906101000a900473ffffffffffffffffffffffffffffffffffffffff1681565b6000809054906101000a900473ffffffffffffffffffffffffffffffffffffffff1673ffffffffffffffffffffffffffffffffffffffff163373ffffffffffffffffffffffffffffffffffffffff1614151561057f57600080fd5b80610589816104d7565b15151561059557600080fd5b436003600084600019166000191681526020019081526020016000208190555081600019167f615fe29dd761acef07dabe50d28b02874372a0a63ee7fa4221480b34b7ac14ba60405160405180910390a25050565b60008060009054906101000a900473ffffffffffffffffffffffffffffffffffffffff1673ffffffffffffffffffffffffffffffffffffffff163373ffffffffffffffffffffffffffffffffffffffff1614151561064757600080fd5b826106518161040e565b15151561065d57600080fd5b60606040519081016040528085600019168152602001438152602001848152506004600086600019166000191681526020019081526020016000206000820151816000019060001916905560208201518160010155604082015181600201559050508284600019167fba2ff7aceccd1742d00e386f05d483c89cbb4e8ebf02234c436df1ec854261fd60405160405180910390a35092915050565b600081610704816104d7565b151561070f57600080fd5b60036000846000191660001916815260200190815260200160002054915050919050565b6000809054906101000a900473ffffffffffffffffffffffffffffffffffffffff1673ffffffffffffffffffffffffffffffffffffffff163373ffffffffffffffffffffffffffffffffffffffff1614151561078e57600080fd5b600073ffffffffffffffffffffffffffffffffffffffff168173ffffffffffffffffffffffffffffffffffffffff16141515156107ca57600080fd5b8073ffffffffffffffffffffffffffffffffffffffff166000809054906101000a900473ffffffffffffffffffffffffffffffffffffffff1673ffffffffffffffffffffffffffffffffffffffff167f8be0079c531659141344cd1fd0a4f28419497f9722a3daafe3b4186f6b6457e060405160405180910390a3806000806101000a81548173ffffffffffffffffffffffffffffffffffffffff021916908373ffffffffffffffffffffffffffffffffffffffff160217905550505600a165627a7a72305820bb8da4471905e20f8f1c69c4e300bc26caca271305db12330e94466a02796e230029",
  "source": "pragma solidity ^0.4.17;\n\nimport \"zeppelin-solidity/contracts/ownership/Ownable.sol\";\n\n\ncontract CertificateStore is Ownable {\n  string public verificationUrl;\n  string public name;\n\n  /// A mapping of the certificate batch merkle root to the block number that was issued\n  mapping(bytes32 => uint) certificateIssued;\n  /// A mapping of the hash of the claim being revoked to a revocation struct\n  mapping(bytes32 => Revocation) certificateRevoked;\n\n  event CertificateIssued(bytes32 indexed certificate);\n  event CertificateRevoked(\n    bytes32 indexed certificate,\n    uint indexed revocationReason\n  );\n\n  /// A revocation\n  ///\n  /// See https://www.imsglobal.org/sites/default/files/Badges/OBv2p0/index.html#RevocationList\n  /// for the details needed\n  struct Revocation {\n    // Merkle root of the batch\n    bytes32 certificate;\n    /// Block number of revocation\n    uint blockNumber;\n    uint revocationReason;\n  }\n\n  function CertificateStore(\n    string _verificationUrl,\n    string _name\n  ) public\n  {\n    verificationUrl = _verificationUrl;\n    name = _name;\n  }\n\n  function issueCertificate(\n    bytes32 certificate\n  ) public onlyOwner onlyNotIssuedBatch(certificate)\n  {\n    certificateIssued[certificate] = block.number;\n    CertificateIssued(certificate);\n  }\n\n  function getIssuedBlock(\n    bytes32 certificate\n  ) public onlyIssuedBatch(certificate) view returns (uint)\n  {\n    return certificateIssued[certificate];\n  }\n\n  function isCertificateIssued(\n    bytes32 certificate\n  ) public view returns (bool)\n  {\n    return (certificateIssued[certificate] != 0);\n  }\n\n  function revokeCertificate(\n    bytes32 certificate,\n    uint reason\n  ) public onlyOwner onlyNotRevoked(certificate) returns (bool)\n  {\n    certificateRevoked[certificate] = Revocation(certificate, block.number, reason);\n    CertificateRevoked(certificate, reason);\n  }\n\n  function isRevoked(\n    bytes32 certificate\n  ) public view returns (bool)\n  {\n    return certificateRevoked[certificate].blockNumber != 0;\n  }\n\n  modifier onlyIssuedBatch(bytes32 certificate) {\n    require(isCertificateIssued(certificate));\n    _;\n  }\n\n  modifier onlyNotIssuedBatch(bytes32 certificate) {\n    require(!isCertificateIssued(certificate));\n    _;\n  }\n\n  modifier onlyNotRevoked(bytes32 claim) {\n    require(!isRevoked(claim));\n    _;\n  }\n}\n",
  "sourcePath": "/Users/raymondyeh/Desktop/certificate-contract/contracts/CertificateStore.sol",
  "compiler": {
    "name": "solc",
    "version": "0.4.19+commit.c4cbbb05.Emscripten.clang"
  },
  "schemaVersion": "1.0.1",
  "updatedAt": "2018-02-19T02:24:59.332Z"
}