{
  "contractName": "CertificateStore",
  "abi": [
    {
      "constant": true,
      "inputs": [],
      "name": "name",
      "outputs": [
        {
          "name": "",
          "type": "string"
        }
      ],
      "payable": false,
      "stateMutability": "view",
      "type": "function"
    },
    {
      "constant": false,
      "inputs": [],
      "name": "renounceOwnership",
      "outputs": [],
      "payable": false,
      "stateMutability": "nonpayable",
      "type": "function"
    },
    {
      "constant": true,
      "inputs": [],
      "name": "owner",
      "outputs": [
        {
          "name": "",
          "type": "address"
        }
      ],
      "payable": false,
      "stateMutability": "view",
      "type": "function"
    },
    {
      "constant": false,
      "inputs": [
        {
          "name": "_newOwner",
          "type": "address"
        }
      ],
      "name": "transferOwnership",
      "outputs": [],
      "payable": false,
      "stateMutability": "nonpayable",
      "type": "function"
    },
    {
      "inputs": [
        {
          "name": "_name",
          "type": "string"
        }
      ],
      "payable": false,
      "stateMutability": "nonpayable",
      "type": "constructor"
    },
    {
      "anonymous": false,
      "inputs": [
        {
          "indexed": true,
          "name": "certificate",
          "type": "bytes32"
        }
      ],
      "name": "CertificateIssued",
      "type": "event"
    },
    {
      "anonymous": false,
      "inputs": [
        {
          "indexed": true,
          "name": "certificate",
          "type": "bytes32"
        }
      ],
      "name": "CertificateRevoked",
      "type": "event"
    },
    {
      "anonymous": false,
      "inputs": [
        {
          "indexed": true,
          "name": "previousOwner",
          "type": "address"
        }
      ],
      "name": "OwnershipRenounced",
      "type": "event"
    },
    {
      "anonymous": false,
      "inputs": [
        {
          "indexed": true,
          "name": "previousOwner",
          "type": "address"
        },
        {
          "indexed": true,
          "name": "newOwner",
          "type": "address"
        }
      ],
      "name": "OwnershipTransferred",
      "type": "event"
    },
    {
      "constant": false,
      "inputs": [
        {
          "name": "certificate",
          "type": "bytes32"
        }
      ],
      "name": "issueCertificate",
      "outputs": [],
      "payable": false,
      "stateMutability": "nonpayable",
      "type": "function"
    },
    {
      "constant": true,
      "inputs": [
        {
          "name": "certificate",
          "type": "bytes32"
        }
      ],
      "name": "getIssuedBlock",
      "outputs": [
        {
          "name": "",
          "type": "uint256"
        }
      ],
      "payable": false,
      "stateMutability": "view",
      "type": "function"
    },
    {
      "constant": true,
      "inputs": [
        {
          "name": "certificate",
          "type": "bytes32"
        }
      ],
      "name": "isCertificateIssued",
      "outputs": [
        {
          "name": "",
          "type": "bool"
        }
      ],
      "payable": false,
      "stateMutability": "view",
      "type": "function"
    },
    {
      "constant": true,
      "inputs": [
        {
          "name": "certificate",
          "type": "bytes32"
        },
        {
          "name": "blockNumber",
          "type": "uint256"
        }
      ],
      "name": "isCertificateIssuedBefore",
      "outputs": [
        {
          "name": "",
          "type": "bool"
        }
      ],
      "payable": false,
      "stateMutability": "view",
      "type": "function"
    },
    {
      "constant": false,
      "inputs": [
        {
          "name": "certificate",
          "type": "bytes32"
        }
      ],
      "name": "revokeCertificate",
      "outputs": [
        {
          "name": "",
          "type": "bool"
        }
      ],
      "payable": false,
      "stateMutability": "nonpayable",
      "type": "function"
    },
    {
      "constant": true,
      "inputs": [
        {
          "name": "certificate",
          "type": "bytes32"
        }
      ],
      "name": "isRevoked",
      "outputs": [
        {
          "name": "",
          "type": "bool"
        }
      ],
      "payable": false,
      "stateMutability": "view",
      "type": "function"
    },
    {
      "constant": true,
      "inputs": [
        {
          "name": "certificate",
          "type": "bytes32"
        },
        {
          "name": "blockNumber",
          "type": "uint256"
        }
      ],
      "name": "isRevokedBefore",
      "outputs": [
        {
          "name": "",
          "type": "bool"
        }
      ],
      "payable": false,
      "stateMutability": "view",
      "type": "function"
    }
  ],
  "bytecode": "0x608060405234801561001057600080fd5b50604051610ceb380380610ceb83398101806040528101908080518201929190505050336000806101000a81548173ffffffffffffffffffffffffffffffffffffffff021916908373ffffffffffffffffffffffffffffffffffffffff1602179055508060019080519060200190610089929190610090565b5050610135565b828054600181600116156101000203166002900490600052602060002090601f016020900481019282601f106100d157805160ff19168380011785556100ff565b828001600101855582156100ff579182015b828111156100fe5782518255916020019190600101906100e3565b5b50905061010c9190610110565b5090565b61013291905b8082111561012e576000816000905550600101610116565b5090565b90565b610ba7806101446000396000f3006080604052600436106100af576000357c0100000000000000000000000000000000000000000000000000000000900463ffffffff16806306fdde03146100b4578063339b6b3914610144578063416adc77146101975780634294857f146101ea5780635e6b4a4714610233578063715018a61461027c5780638da5cb5b14610293578063a1f81824146102ea578063bf40b9041461031b578063c6cbc52a14610360578063f2fde38b146103a9575b600080fd5b3480156100c057600080fd5b506100c96103ec565b6040518080602001828103825283818151815260200191508051906020019080838360005b838110156101095780820151818401526020810190506100ee565b50505050905090810190601f1680156101365780820380516001836020036101000a031916815260200191505b509250505060405180910390f35b34801561015057600080fd5b5061017d60048036038101908080356000191690602001909291908035906020019092919050505061048a565b604051808215151515815260200191505060405180910390f35b3480156101a357600080fd5b506101d06004803603810190808035600019169060200190929190803590602001909291905050506104db565b604051808215151515815260200191505060405180910390f35b3480156101f657600080fd5b50610219600480360381019080803560001916906020019092919050505061052b565b604051808215151515815260200191505060405180910390f35b34801561023f57600080fd5b506102626004803603810190808035600019169060200190929190505050610553565b604051808215151515815260200191505060405180910390f35b34801561028857600080fd5b5061029161057b565b005b34801561029f57600080fd5b506102a861067d565b604051808273ffffffffffffffffffffffffffffffffffffffff1673ffffffffffffffffffffffffffffffffffffffff16815260200191505060405180910390f35b3480156102f657600080fd5b5061031960048036038101908080356000191690602001909291905050506106a2565b005b34801561032757600080fd5b5061034a60048036038101908080356000191690602001909291905050506107f7565b6040518082815260200191505060405180910390f35b34801561036c57600080fd5b5061038f60048036038101908080356000191690602001909291905050506108c1565b604051808215151515815260200191505060405180910390f35b3480156103b557600080fd5b506103ea600480360381019080803573ffffffffffffffffffffffffffffffffffffffff169060200190929190505050610a1a565b005b60018054600181600116156101000203166002900480601f0160208091040260200160405190810160405280929190818152602001828054600181600116156101000203166002900480156104825780601f1061045757610100808354040283529160200191610482565b820191906000526020600020905b81548152906001019060200180831161046557829003601f168201915b505050505081565b60008160036000856000191660001916815260200190815260200160002054111580156104d3575060006003600085600019166000191681526020019081526020016000205414155b905092915050565b60008060026000856000191660001916815260200190815260200160002054141580156105235750816002600085600019166000191681526020019081526020016000205411155b905092915050565b6000806003600084600019166000191681526020019081526020016000205414159050919050565b6000806002600084600019166000191681526020019081526020016000205414159050919050565b6000809054906101000a900473ffffffffffffffffffffffffffffffffffffffff1673ffffffffffffffffffffffffffffffffffffffff163373ffffffffffffffffffffffffffffffffffffffff161415156105d657600080fd5b6000809054906101000a900473ffffffffffffffffffffffffffffffffffffffff1673ffffffffffffffffffffffffffffffffffffffff167ff8df31144d9c2f0f6b59d69b8b98abd5459d07f2742c4df920b25aae33c6482060405160405180910390a260008060006101000a81548173ffffffffffffffffffffffffffffffffffffffff021916908373ffffffffffffffffffffffffffffffffffffffff160217905550565b6000809054906101000a900473ffffffffffffffffffffffffffffffffffffffff1681565b6000809054906101000a900473ffffffffffffffffffffffffffffffffffffffff1673ffffffffffffffffffffffffffffffffffffffff163373ffffffffffffffffffffffffffffffffffffffff161415156106fd57600080fd5b8061070781610553565b1515156107a2576040517f08c379a000000000000000000000000000000000000000000000000000000000815260040180806020018281038252603a8152602001807f4572726f723a204f6e6c792068617368657320746861742068617665206e6f7481526020017f206265656e206973737565642063616e2062652069737375656400000000000081525060400191505060405180910390fd5b436002600084600019166000191681526020019081526020016000208190555081600019167f615fe29dd761acef07dabe50d28b02874372a0a63ee7fa4221480b34b7ac14ba60405160405180910390a25050565b60008161080381610553565b151561089d576040517f08c379a00000000000000000000000000000000000000000000000000000000081526004018080602001828103825260348152602001807f4572726f723a204f6e6c7920697373756564206365727469666963617465206881526020017f61736865732063616e206265207265766f6b656400000000000000000000000081525060400191505060405180910390fd5b60026000846000191660001916815260200190815260200160002054915050919050565b60008060009054906101000a900473ffffffffffffffffffffffffffffffffffffffff1673ffffffffffffffffffffffffffffffffffffffff163373ffffffffffffffffffffffffffffffffffffffff1614151561091e57600080fd5b816109288161052b565b1515156109c3576040517f08c379a00000000000000000000000000000000000000000000000000000000081526004018080602001828103825260278152602001807f4572726f723a204861736820686173206265656e207265766f6b65642070726581526020017f76696f75736c790000000000000000000000000000000000000000000000000081525060400191505060405180910390fd5b436003600085600019166000191681526020019081526020016000208190555082600019167f44d80a438cb4fa3b5aedbe551ce3d9382e37f446917b783e1dee70a03b4180e360405160405180910390a250919050565b6000809054906101000a900473ffffffffffffffffffffffffffffffffffffffff1673ffffffffffffffffffffffffffffffffffffffff163373ffffffffffffffffffffffffffffffffffffffff16141515610a7557600080fd5b610a7e81610a81565b50565b600073ffffffffffffffffffffffffffffffffffffffff168173ffffffffffffffffffffffffffffffffffffffff1614151515610abd57600080fd5b8073ffffffffffffffffffffffffffffffffffffffff166000809054906101000a900473ffffffffffffffffffffffffffffffffffffffff1673ffffffffffffffffffffffffffffffffffffffff167f8be0079c531659141344cd1fd0a4f28419497f9722a3daafe3b4186f6b6457e060405160405180910390a3806000806101000a81548173ffffffffffffffffffffffffffffffffffffffff021916908373ffffffffffffffffffffffffffffffffffffffff160217905550505600a165627a7a72305820fb2ff02df8700e72c8dc12fecbb41bfa0c7a8212e84ea0d5da91fe9c91df56020029",
  "source": "pragma solidity ^0.4.24;\n\nimport \"openzeppelin-solidity/contracts/ownership/Ownable.sol\";\n\n\ncontract CertificateStore is Ownable {\n  string public name;\n\n  /// A mapping of the certificate hash to the block number that was issued\n  mapping(bytes32 => uint) certificateIssued;\n  /// A mapping of the hash of the claim being revoked to the revocation block number\n  mapping(bytes32 => uint) certificateRevoked;\n\n  event CertificateIssued(bytes32 indexed certificate);\n  event CertificateRevoked(\n    bytes32 indexed certificate\n  );\n\n  constructor(\n    string _name\n  ) public\n  {\n    name = _name;\n  }\n\n  function issueCertificate(\n    bytes32 certificate\n  ) public onlyOwner onlyNotIssuedCertificate(certificate)\n  {\n    certificateIssued[certificate] = block.number;\n    emit CertificateIssued(certificate);\n  }\n\n  function getIssuedBlock(\n    bytes32 certificate\n  ) public onlyIssuedCertificate(certificate) view returns (uint)\n  {\n    return certificateIssued[certificate];\n  }\n\n  function isCertificateIssued(\n    bytes32 certificate\n  ) public view returns (bool)\n  {\n    return (certificateIssued[certificate] != 0);\n  }\n\n  function isCertificateIssuedBefore(\n    bytes32 certificate,\n    uint blockNumber\n  ) public view returns (bool)\n  {\n    return certificateIssued[certificate] != 0 && certificateIssued[certificate] <= blockNumber;\n  }\n\n  function revokeCertificate(\n    bytes32 certificate\n  ) public onlyOwner onlyNotRevoked(certificate) returns (bool)\n  {\n    certificateRevoked[certificate] = block.number;\n    emit CertificateRevoked(certificate);\n  }\n\n  function isRevoked(\n    bytes32 certificate\n  ) public view returns (bool)\n  {\n    return certificateRevoked[certificate] != 0;\n  }\n\n  function isRevokedBefore(\n    bytes32 certificate,\n    uint blockNumber\n  ) public view returns (bool)\n  {\n    return certificateRevoked[certificate] <= blockNumber && certificateRevoked[certificate] != 0;\n  }\n\n  modifier onlyIssuedCertificate(bytes32 certificate) {\n    require(isCertificateIssued(certificate), \"Error: Only issued certificate hashes can be revoked\");\n    _;\n  }\n\n  modifier onlyNotIssuedCertificate(bytes32 certificate) {\n    require(!isCertificateIssued(certificate), \"Error: Only hashes that have not been issued can be issued\");\n    _;\n  }\n\n  modifier onlyNotRevoked(bytes32 claim) {\n    require(!isRevoked(claim), \"Error: Hash has been revoked previously\");\n    _;\n  }\n}\n",
  "sourcePath": "/Users/rjc/Projects/DLT_Project/certificate-contract/contracts/CertificateStore.sol",
  "compiler": {
    "name": "solc",
    "version": "0.4.24+commit.e67f0147.Emscripten.clang"
  },
  "schemaVersion": "2.0.1",
  "updatedAt": "2018-10-02T05:08:48.630Z"
}