{
  "contractName": "DocumentStoreWithRevokeReasons",
  "abi": [
    {
      "anonymous": false,
      "inputs": [
        {
          "indexed": true,
          "internalType": "bytes32",
          "name": "document",
          "type": "bytes32"
        }
      ],
      "name": "DocumentIssued",
      "type": "event"
    },
    {
      "anonymous": false,
      "inputs": [
        {
          "indexed": true,
          "internalType": "bytes32",
          "name": "document",
          "type": "bytes32"
        }
      ],
      "name": "DocumentRevoked",
      "type": "event"
    },
    {
      "anonymous": false,
      "inputs": [
        {
          "indexed": true,
          "internalType": "bytes32",
          "name": "document",
          "type": "bytes32"
        },
        {
          "indexed": false,
          "internalType": "uint256",
          "name": "reason",
          "type": "uint256"
        }
      ],
      "name": "DocumentRevokedWithReason",
      "type": "event"
    },
    {
      "anonymous": false,
      "inputs": [
        {
          "indexed": true,
          "internalType": "address",
          "name": "previousOwner",
          "type": "address"
        },
        {
          "indexed": true,
          "internalType": "address",
          "name": "newOwner",
          "type": "address"
        }
      ],
      "name": "OwnershipTransferred",
      "type": "event"
    },
    {
      "constant": false,
      "inputs": [
        {
          "internalType": "bytes32[]",
          "name": "documents",
          "type": "bytes32[]"
        }
      ],
      "name": "bulkIssue",
      "outputs": [],
      "payable": false,
      "stateMutability": "nonpayable",
      "type": "function"
    },
    {
      "constant": true,
      "inputs": [
        {
          "internalType": "bytes32",
          "name": "",
          "type": "bytes32"
        }
      ],
      "name": "documentIssued",
      "outputs": [
        {
          "internalType": "uint256",
          "name": "",
          "type": "uint256"
        }
      ],
      "payable": false,
      "stateMutability": "view",
      "type": "function"
    },
    {
      "constant": true,
      "inputs": [
        {
          "internalType": "bytes32",
          "name": "",
          "type": "bytes32"
        }
      ],
      "name": "documentRevoked",
      "outputs": [
        {
          "internalType": "uint256",
          "name": "",
          "type": "uint256"
        }
      ],
      "payable": false,
      "stateMutability": "view",
      "type": "function"
    },
    {
      "constant": true,
      "inputs": [
        {
          "internalType": "bytes32",
          "name": "document",
          "type": "bytes32"
        }
      ],
      "name": "getIssuedBlock",
      "outputs": [
        {
          "internalType": "uint256",
          "name": "",
          "type": "uint256"
        }
      ],
      "payable": false,
      "stateMutability": "view",
      "type": "function"
    },
    {
      "constant": false,
      "inputs": [
        {
          "internalType": "string",
          "name": "_name",
          "type": "string"
        },
        {
          "internalType": "address",
          "name": "owner",
          "type": "address"
        }
      ],
      "name": "initialize",
      "outputs": [],
      "payable": false,
      "stateMutability": "nonpayable",
      "type": "function"
    },
    {
      "constant": false,
      "inputs": [
        {
          "internalType": "address",
          "name": "sender",
          "type": "address"
        }
      ],
      "name": "initialize",
      "outputs": [],
      "payable": false,
      "stateMutability": "nonpayable",
      "type": "function"
    },
    {
      "constant": true,
      "inputs": [
        {
          "internalType": "bytes32",
          "name": "document",
          "type": "bytes32"
        }
      ],
      "name": "isIssued",
      "outputs": [
        {
          "internalType": "bool",
          "name": "",
          "type": "bool"
        }
      ],
      "payable": false,
      "stateMutability": "view",
      "type": "function"
    },
    {
      "constant": true,
      "inputs": [
        {
          "internalType": "bytes32",
          "name": "document",
          "type": "bytes32"
        },
        {
          "internalType": "uint256",
          "name": "blockNumber",
          "type": "uint256"
        }
      ],
      "name": "isIssuedBefore",
      "outputs": [
        {
          "internalType": "bool",
          "name": "",
          "type": "bool"
        }
      ],
      "payable": false,
      "stateMutability": "view",
      "type": "function"
    },
    {
      "constant": true,
      "inputs": [],
      "name": "isOwner",
      "outputs": [
        {
          "internalType": "bool",
          "name": "",
          "type": "bool"
        }
      ],
      "payable": false,
      "stateMutability": "view",
      "type": "function"
    },
    {
      "constant": true,
      "inputs": [
        {
          "internalType": "bytes32",
          "name": "document",
          "type": "bytes32"
        }
      ],
      "name": "isRevoked",
      "outputs": [
        {
          "internalType": "bool",
          "name": "",
          "type": "bool"
        }
      ],
      "payable": false,
      "stateMutability": "view",
      "type": "function"
    },
    {
      "constant": true,
      "inputs": [
        {
          "internalType": "bytes32",
          "name": "document",
          "type": "bytes32"
        },
        {
          "internalType": "uint256",
          "name": "blockNumber",
          "type": "uint256"
        }
      ],
      "name": "isRevokedBefore",
      "outputs": [
        {
          "internalType": "bool",
          "name": "",
          "type": "bool"
        }
      ],
      "payable": false,
      "stateMutability": "view",
      "type": "function"
    },
    {
      "constant": false,
      "inputs": [
        {
          "internalType": "bytes32",
          "name": "document",
          "type": "bytes32"
        }
      ],
      "name": "issue",
      "outputs": [],
      "payable": false,
      "stateMutability": "nonpayable",
      "type": "function"
    },
    {
      "constant": true,
      "inputs": [],
      "name": "name",
      "outputs": [
        {
          "internalType": "string",
          "name": "",
          "type": "string"
        }
      ],
      "payable": false,
      "stateMutability": "view",
      "type": "function"
    },
    {
      "constant": true,
      "inputs": [],
      "name": "owner",
      "outputs": [
        {
          "internalType": "address",
          "name": "",
          "type": "address"
        }
      ],
      "payable": false,
      "stateMutability": "view",
      "type": "function"
    },
    {
      "constant": false,
      "inputs": [],
      "name": "renounceOwnership",
      "outputs": [],
      "payable": false,
      "stateMutability": "nonpayable",
      "type": "function"
    },
    {
      "constant": true,
      "inputs": [
        {
          "internalType": "bytes32",
          "name": "",
          "type": "bytes32"
        }
      ],
      "name": "revokeReason",
      "outputs": [
        {
          "internalType": "uint256",
          "name": "",
          "type": "uint256"
        }
      ],
      "payable": false,
      "stateMutability": "view",
      "type": "function"
    },
    {
      "constant": false,
      "inputs": [
        {
          "internalType": "address",
          "name": "newOwner",
          "type": "address"
        }
      ],
      "name": "transferOwnership",
      "outputs": [],
      "payable": false,
      "stateMutability": "nonpayable",
      "type": "function"
    },
    {
      "constant": true,
      "inputs": [],
      "name": "version",
      "outputs": [
        {
          "internalType": "string",
          "name": "",
          "type": "string"
        }
      ],
      "payable": false,
      "stateMutability": "view",
      "type": "function"
    },
    {
      "constant": false,
      "inputs": [
        {
          "internalType": "bytes32",
          "name": "document",
          "type": "bytes32"
        }
      ],
      "name": "revoke",
      "outputs": [
        {
          "internalType": "bool",
          "name": "",
          "type": "bool"
        }
      ],
      "payable": false,
      "stateMutability": "nonpayable",
      "type": "function"
    },
    {
      "constant": false,
      "inputs": [
        {
          "internalType": "bytes32",
          "name": "document",
          "type": "bytes32"
        },
        {
          "internalType": "uint256",
          "name": "reason",
          "type": "uint256"
        }
      ],
      "name": "revoke",
      "outputs": [
        {
          "internalType": "bool",
          "name": "",
          "type": "bool"
        }
      ],
      "payable": false,
      "stateMutability": "nonpayable",
      "type": "function"
    },
    {
      "constant": false,
      "inputs": [
        {
          "internalType": "bytes32[]",
          "name": "documents",
          "type": "bytes32[]"
        }
      ],
      "name": "bulkRevoke",
      "outputs": [],
      "payable": false,
      "stateMutability": "nonpayable",
      "type": "function"
    },
    {
      "constant": false,
      "inputs": [
        {
          "internalType": "bytes32[]",
          "name": "documents",
          "type": "bytes32[]"
        },
        {
          "internalType": "uint256",
          "name": "reason",
          "type": "uint256"
        }
      ],
      "name": "bulkRevoke",
      "outputs": [],
      "payable": false,
      "stateMutability": "nonpayable",
      "type": "function"
    }
  ],
  "bytecode": "0x608060405261195a806100136000396000f3fe608060405234801561001057600080fd5b50600436106101425760003560e01c80637df20826116100b8578063b75c7dc61161007c578063b75c7dc61461072e578063bb46942f14610774578063bf40b904146107c4578063c4d66de814610806578063e8864c5a1461084a578063f2fde38b1461090c57610142565b80637df20826146105865780638bc36c911461063e5780638da5cb5b146106805780638f32d59b146106ca578063b4c7e70e146106ec57610142565b80634294857f1161010a5780634294857f146102d05780634ada80761461031657806354fd4d50146103ce5780635a9e03ca14610451578063715018a6146104a15780637ab4339d146104ab57610142565b806306fdde03146101475780630f75e81f146101ca578063163aa631146101f857806333358d2d1461023e578063339b6b3914610280575b600080fd5b61014f610950565b6040518080602001828103825283818151815260200191508051906020019080838360005b8381101561018f578082015181840152602081019050610174565b50505050905090810190601f1680156101bc5780820380516001836020036101000a031916815260200191505b509250505060405180910390f35b6101f6600480360360208110156101e057600080fd5b81019080803590602001909291905050506109ee565b005b6102246004803603602081101561020e57600080fd5b8101908080359060200190929190505050610b11565b604051808215151515815260200191505060405180910390f35b61026a6004803603602081101561025457600080fd5b8101908080359060200190929190505050610b31565b6040518082815260200191505060405180910390f35b6102b66004803603604081101561029657600080fd5b810190808035906020019092919080359060200190929190505050610b49565b604051808215151515815260200191505060405180910390f35b6102fc600480360360208110156102e657600080fd5b8101908080359060200190929190505050610b8a565b604051808215151515815260200191505060405180910390f35b6103cc6004803603602081101561032c57600080fd5b810190808035906020019064010000000081111561034957600080fd5b82018360208201111561035b57600080fd5b8035906020019184602083028401116401000000008311171561037d57600080fd5b919080806020026020016040519081016040528093929190818152602001838360200280828437600081840152601f19601f820116905080830192505050505050509192919290505050610baa565b005b6103d6610be7565b6040518080602001828103825283818151815260200191508051906020019080838360005b838110156104165780820151818401526020810190506103fb565b50505050905090810190601f1680156104435780820380516001836020036101000a031916815260200191505b509250505060405180910390f35b6104876004803603604081101561046757600080fd5b810190808035906020019092919080359060200190929190505050610c85565b604051808215151515815260200191505060405180910390f35b6104a9610cc5565b005b610584600480360360408110156104c157600080fd5b81019080803590602001906401000000008111156104de57600080fd5b8201836020820111156104f057600080fd5b8035906020019184600183028401116401000000008311171561051257600080fd5b91908080601f016020809104026020016040519081016040528093929190818152602001838380828437600081840152601f19601f820116905080830192505050505050509192919290803573ffffffffffffffffffffffffffffffffffffffff169060200190929190505050610e00565b005b61063c6004803603602081101561059c57600080fd5b81019080803590602001906401000000008111156105b957600080fd5b8201836020820111156105cb57600080fd5b803590602001918460208302840111640100000000831117156105ed57600080fd5b919080806020026020016040519081016040528093929190818152602001838360200280828437600081840152601f19601f820116905080830192505050505050509192919290505050610f6d565b005b61066a6004803603602081101561065457600080fd5b8101908080359060200190929190505050610fa9565b6040518082815260200191505060405180910390f35b610688610fc1565b604051808273ffffffffffffffffffffffffffffffffffffffff1673ffffffffffffffffffffffffffffffffffffffff16815260200191505060405180910390f35b6106d2610feb565b604051808215151515815260200191505060405180910390f35b6107186004803603602081101561070257600080fd5b810190808035906020019092919050505061104a565b6040518082815260200191505060405180910390f35b61075a6004803603602081101561074457600080fd5b8101908080359060200190929190505050611062565b604051808215151515815260200191505060405180910390f35b6107aa6004803603604081101561078a57600080fd5b810190808035906020019092919080359060200190929190505050611189565b604051808215151515815260200191505060405180910390f35b6107f0600480360360208110156107da57600080fd5b81019080803590602001909291905050506112c6565b6040518082815260200191505060405180910390f35b6108486004803603602081101561081c57600080fd5b81019080803573ffffffffffffffffffffffffffffffffffffffff169060200190929190505050611343565b005b61090a6004803603604081101561086057600080fd5b810190808035906020019064010000000081111561087d57600080fd5b82018360208201111561088f57600080fd5b803590602001918460208302840111640100000000831117156108b157600080fd5b919080806020026020016040519081016040528093929190818152602001838360200280828437600081840152601f19601f82011690508083019250505050505050919291929080359060200190929190505050611501565b005b61094e6004803603602081101561092257600080fd5b81019080803573ffffffffffffffffffffffffffffffffffffffff1690602001909291905050506115b5565b005b60668054600181600116156101000203166002900480601f0160208091040260200160405190810160405280929190818152602001828054600181600116156101000203166002900480156109e65780601f106109bb576101008083540402835291602001916109e6565b820191906000526020600020905b8154815290600101906020018083116109c957829003601f168201915b505050505081565b6109f6610feb565b610a68576040517f08c379a00000000000000000000000000000000000000000000000000000000081526004018080602001828103825260208152602001807f4f776e61626c653a2063616c6c6572206973206e6f7420746865206f776e657281525060200191505060405180910390fd5b80610a7281610b11565b15610ac8576040517f08c379a000000000000000000000000000000000000000000000000000000000815260040180806020018281038252603a8152602001806118be603a913960400191505060405180910390fd5b436068600084815260200190815260200160002081905550817f01a1249f2caa0445b8391e02413d26f0d409dabe5330cd1d04d3d0801fc42db360405160405180910390a25050565b600080606860008481526020019081526020016000205414159050919050565b60686020528060005260406000206000915090505481565b600081606960008581526020019081526020016000205411158015610b8257506000606960008581526020019081526020016000205414155b905092915050565b600080606960008481526020019081526020016000205414159050919050565b60008090505b8151811015610be357610bd5828281518110610bc857fe5b6020026020010151611062565b508080600101915050610bb0565b5050565b60678054600181600116156101000203166002900480601f016020809104026020016040519081016040528092919081815260200182805460018160011615610100020316600290048015610c7d5780601f10610c5257610100808354040283529160200191610c7d565b820191906000526020600020905b815481529060010190602001808311610c6057829003601f168201915b505050505081565b600080606860008581526020019081526020016000205414158015610cbd575081606860008581526020019081526020016000205411155b905092915050565b610ccd610feb565b610d3f576040517f08c379a00000000000000000000000000000000000000000000000000000000081526004018080602001828103825260208152602001807f4f776e61626c653a2063616c6c6572206973206e6f7420746865206f776e657281525060200191505060405180910390fd5b600073ffffffffffffffffffffffffffffffffffffffff16603360009054906101000a900473ffffffffffffffffffffffffffffffffffffffff1673ffffffffffffffffffffffffffffffffffffffff167f8be0079c531659141344cd1fd0a4f28419497f9722a3daafe3b4186f6b6457e060405160405180910390a36000603360006101000a81548173ffffffffffffffffffffffffffffffffffffffff021916908373ffffffffffffffffffffffffffffffffffffffff160217905550565b600060019054906101000a900460ff1680610e1f5750610e1e61163b565b5b80610e3657506000809054906101000a900460ff16155b610e8b576040517f08c379a000000000000000000000000000000000000000000000000000000000815260040180806020018281038252602e8152602001806118f8602e913960400191505060405180910390fd5b60008060019054906101000a900460ff161590508015610edb576001600060016101000a81548160ff02191690831515021790555060016000806101000a81548160ff0219169083151502179055505b610ee482611343565b6040518060400160405280600581526020017f332e302e3000000000000000000000000000000000000000000000000000000081525060679080519060200190610f2f92919061179a565b508260669080519060200190610f4692919061179a565b508015610f685760008060016101000a81548160ff0219169083151502179055505b505050565b60008090505b8151811015610fa557610f98828281518110610f8b57fe5b60200260200101516109ee565b8080600101915050610f73565b5050565b60696020528060005260406000206000915090505481565b6000603360009054906101000a900473ffffffffffffffffffffffffffffffffffffffff16905090565b6000603360009054906101000a900473ffffffffffffffffffffffffffffffffffffffff1673ffffffffffffffffffffffffffffffffffffffff1661102e61164c565b73ffffffffffffffffffffffffffffffffffffffff1614905090565b606a6020528060005260406000206000915090505481565b600061106c610feb565b6110de576040517f08c379a00000000000000000000000000000000000000000000000000000000081526004018080602001828103825260208152602001807f4f776e61626c653a2063616c6c6572206973206e6f7420746865206f776e657281525060200191505060405180910390fd5b816110e881610b8a565b1561113e576040517f08c379a00000000000000000000000000000000000000000000000000000000081526004018080602001828103825260278152602001806118716027913960400191505060405180910390fd5b436069600085815260200190815260200160002081905550827f7283b5ab9758f7fba773279e4fd50ea7b136bd1d8371dcae9c5ce529c55343d760405160405180910390a250919050565b6000611193610feb565b611205576040517f08c379a00000000000000000000000000000000000000000000000000000000081526004018080602001828103825260208152602001807f4f776e61626c653a2063616c6c6572206973206e6f7420746865206f776e657281525060200191505060405180910390fd5b8261120f81610b8a565b15611265576040517f08c379a00000000000000000000000000000000000000000000000000000000081526004018080602001828103825260278152602001806118716027913960400191505060405180910390fd5b61126e84611062565b5082606a600086815260200190815260200160002081905550837f0d74e162c95c1a7f8a0a7a92801ea666e46b23e1d1c89b0d5c3c20a0caa96293846040518082815260200191505060405180910390a25092915050565b6000816112d281610b11565b611327576040517f08c379a00000000000000000000000000000000000000000000000000000000081526004018080602001828103825260318152602001806118406031913960400191505060405180910390fd5b6068600084815260200190815260200160002054915050919050565b600060019054906101000a900460ff1680611362575061136161163b565b5b8061137957506000809054906101000a900460ff16155b6113ce576040517f08c379a000000000000000000000000000000000000000000000000000000000815260040180806020018281038252602e8152602001806118f8602e913960400191505060405180910390fd5b60008060019054906101000a900460ff16159050801561141e576001600060016101000a81548160ff02191690831515021790555060016000806101000a81548160ff0219169083151502179055505b81603360006101000a81548173ffffffffffffffffffffffffffffffffffffffff021916908373ffffffffffffffffffffffffffffffffffffffff160217905550603360009054906101000a900473ffffffffffffffffffffffffffffffffffffffff1673ffffffffffffffffffffffffffffffffffffffff16600073ffffffffffffffffffffffffffffffffffffffff167f8be0079c531659141344cd1fd0a4f28419497f9722a3daafe3b4186f6b6457e060405160405180910390a380156114fd5760008060016101000a81548160ff0219169083151502179055505b5050565b60008090505b82518110156115b05761152c83828151811061151f57fe5b6020026020010151611062565b5081606a600085848151811061153e57fe5b602002602001015181526020019081526020016000208190555082818151811061156457fe5b60200260200101517f0d74e162c95c1a7f8a0a7a92801ea666e46b23e1d1c89b0d5c3c20a0caa96293836040518082815260200191505060405180910390a28080600101915050611507565b505050565b6115bd610feb565b61162f576040517f08c379a00000000000000000000000000000000000000000000000000000000081526004018080602001828103825260208152602001807f4f776e61626c653a2063616c6c6572206973206e6f7420746865206f776e657281525060200191505060405180910390fd5b61163881611654565b50565b600080303b90506000811491505090565b600033905090565b600073ffffffffffffffffffffffffffffffffffffffff168173ffffffffffffffffffffffffffffffffffffffff1614156116da576040517f08c379a00000000000000000000000000000000000000000000000000000000081526004018080602001828103825260268152602001806118986026913960400191505060405180910390fd5b8073ffffffffffffffffffffffffffffffffffffffff16603360009054906101000a900473ffffffffffffffffffffffffffffffffffffffff1673ffffffffffffffffffffffffffffffffffffffff167f8be0079c531659141344cd1fd0a4f28419497f9722a3daafe3b4186f6b6457e060405160405180910390a380603360006101000a81548173ffffffffffffffffffffffffffffffffffffffff021916908373ffffffffffffffffffffffffffffffffffffffff16021790555050565b828054600181600116156101000203166002900490600052602060002090601f016020900481019282601f106117db57805160ff1916838001178555611809565b82800160010185558215611809579182015b828111156118085782518255916020019190600101906117ed565b5b509050611816919061181a565b5090565b61183c91905b80821115611838576000816000905550600101611820565b5090565b9056fe4572726f723a204f6e6c792069737375656420646f63756d656e74206861736865732063616e206265207265766f6b65644572726f723a204861736820686173206265656e207265766f6b65642070726576696f75736c794f776e61626c653a206e6577206f776e657220697320746865207a65726f20616464726573734572726f723a204f6e6c792068617368657320746861742068617665206e6f74206265656e206973737565642063616e20626520697373756564436f6e747261637420696e7374616e63652068617320616c7265616479206265656e20696e697469616c697a6564a265627a7a72315820da904fe922ed4d53e9d07e0a79b945602c52679f1b577fe6193f8bc288ad2e0764736f6c634300050c0032",
  "source": "pragma solidity 0.5.12;\n\nimport \"./DocumentStore.sol\";\n\ncontract DocumentStoreWithRevokeReasons is DocumentStore {\n  /// A mapping of the document hash to the block number that was issued\n  mapping(bytes32 => uint256) public revokeReason;\n\n  event DocumentRevokedWithReason(bytes32 indexed document, uint256 reason);\n\n  function revoke(bytes32 document, uint256 reason) public onlyOwner onlyNotRevoked(document) returns (bool) {\n    revoke(document);\n    revokeReason[document] = reason;\n    emit DocumentRevokedWithReason(document, reason);\n  }\n\n  function bulkRevoke(bytes32[] memory documents, uint256 reason) public {\n    for (uint256 i = 0; i < documents.length; i++) {\n      revoke(documents[i]);\n      revokeReason[documents[i]] = reason;\n      emit DocumentRevokedWithReason(documents[i], reason);\n    }\n  }\n}\n",
  "sourcePath": "/home/raymond/Desktop/govtech/oa/document-store-contract/contracts/DocumentStoreWithRevokeReasons.sol",
  "compiler": {
    "name": "solc",
    "version": "0.5.12+commit.7709ece9.Emscripten.clang"
  },
  "schemaVersion": "3.0.20",
  "updatedAt": "2020-03-17T07:12:04.990Z",
  "devdoc": {
    "methods": {
      "initialize(address)": {
        "details": "Initializes the contract setting the deployer as the initial owner."
      },
      "isOwner()": {
        "details": "Returns true if the caller is the current owner."
      },
      "owner()": {
        "details": "Returns the address of the current owner."
      },
      "renounceOwnership()": {
        "details": "Leaves the contract without owner. It will not be possible to call `onlyOwner` functions anymore. Can only be called by the current owner.     * > Note: Renouncing ownership will leave the contract without an owner, thereby removing any functionality that is only available to the owner."
      },
      "transferOwnership(address)": {
        "details": "Transfers ownership of the contract to a new account (`newOwner`). Can only be called by the current owner."
      }
    }
  },
  "userdoc": {
    "methods": {}
  }
}