{
  "contractName": "DocumentStore",
  "abi": [
    {
      "constant": true,
      "inputs": [],
      "name": "name",
      "outputs": [
        {
          "name": "",
          "type": "string"
        }
      ],
      "payable": false,
      "stateMutability": "view",
      "type": "function"
    },
    {
      "constant": true,
      "inputs": [],
      "name": "version",
      "outputs": [
        {
          "name": "",
          "type": "string"
        }
      ],
      "payable": false,
      "stateMutability": "view",
      "type": "function"
    },
    {
      "constant": false,
      "inputs": [],
      "name": "renounceOwnership",
      "outputs": [],
      "payable": false,
      "stateMutability": "nonpayable",
      "type": "function"
    },
    {
      "constant": true,
      "inputs": [],
      "name": "owner",
      "outputs": [
        {
          "name": "",
          "type": "address"
        }
      ],
      "payable": false,
      "stateMutability": "view",
      "type": "function"
    },
    {
      "constant": false,
      "inputs": [
        {
          "name": "_newOwner",
          "type": "address"
        }
      ],
      "name": "transferOwnership",
      "outputs": [],
      "payable": false,
      "stateMutability": "nonpayable",
      "type": "function"
    },
    {
      "inputs": [
        {
          "name": "_name",
          "type": "string"
        }
      ],
      "payable": false,
      "stateMutability": "nonpayable",
      "type": "constructor"
    },
    {
      "anonymous": false,
      "inputs": [
        {
          "indexed": true,
          "name": "document",
          "type": "bytes32"
        }
      ],
      "name": "DocumentIssued",
      "type": "event"
    },
    {
      "anonymous": false,
      "inputs": [
        {
          "indexed": true,
          "name": "document",
          "type": "bytes32"
        }
      ],
      "name": "DocumentRevoked",
      "type": "event"
    },
    {
      "anonymous": false,
      "inputs": [
        {
          "indexed": true,
          "name": "previousOwner",
          "type": "address"
        }
      ],
      "name": "OwnershipRenounced",
      "type": "event"
    },
    {
      "anonymous": false,
      "inputs": [
        {
          "indexed": true,
          "name": "previousOwner",
          "type": "address"
        },
        {
          "indexed": true,
          "name": "newOwner",
          "type": "address"
        }
      ],
      "name": "OwnershipTransferred",
      "type": "event"
    },
    {
      "constant": false,
      "inputs": [
        {
          "name": "document",
          "type": "bytes32"
        }
      ],
      "name": "issue",
      "outputs": [],
      "payable": false,
      "stateMutability": "nonpayable",
      "type": "function"
    },
    {
      "constant": true,
      "inputs": [
        {
          "name": "document",
          "type": "bytes32"
        }
      ],
      "name": "getIssuedBlock",
      "outputs": [
        {
          "name": "",
          "type": "uint256"
        }
      ],
      "payable": false,
      "stateMutability": "view",
      "type": "function"
    },
    {
      "constant": true,
      "inputs": [
        {
          "name": "document",
          "type": "bytes32"
        }
      ],
      "name": "isIssued",
      "outputs": [
        {
          "name": "",
          "type": "bool"
        }
      ],
      "payable": false,
      "stateMutability": "view",
      "type": "function"
    },
    {
      "constant": true,
      "inputs": [
        {
          "name": "document",
          "type": "bytes32"
        },
        {
          "name": "blockNumber",
          "type": "uint256"
        }
      ],
      "name": "isIssuedBefore",
      "outputs": [
        {
          "name": "",
          "type": "bool"
        }
      ],
      "payable": false,
      "stateMutability": "view",
      "type": "function"
    },
    {
      "constant": false,
      "inputs": [
        {
          "name": "document",
          "type": "bytes32"
        }
      ],
      "name": "revoke",
      "outputs": [
        {
          "name": "",
          "type": "bool"
        }
      ],
      "payable": false,
      "stateMutability": "nonpayable",
      "type": "function"
    },
    {
      "constant": true,
      "inputs": [
        {
          "name": "document",
          "type": "bytes32"
        }
      ],
      "name": "isRevoked",
      "outputs": [
        {
          "name": "",
          "type": "bool"
        }
      ],
      "payable": false,
      "stateMutability": "view",
      "type": "function"
    },
    {
      "constant": true,
      "inputs": [
        {
          "name": "document",
          "type": "bytes32"
        },
        {
          "name": "blockNumber",
          "type": "uint256"
        }
      ],
      "name": "isRevokedBefore",
      "outputs": [
        {
          "name": "",
          "type": "bool"
        }
      ],
      "payable": false,
      "stateMutability": "view",
      "type": "function"
    }
  ],
  "bytecode": "0x60806040526040805190810160405280600581526020017f322e322e300000000000000000000000000000000000000000000000000000008152506002908051906020019061004f9291906100dc565b5034801561005c57600080fd5b50604051610e70380380610e7083398101806040528101908080518201929190505050336000806101000a81548173ffffffffffffffffffffffffffffffffffffffff021916908373ffffffffffffffffffffffffffffffffffffffff16021790555080600190805190602001906100d59291906100dc565b5050610181565b828054600181600116156101000203166002900490600052602060002090601f016020900481019282601f1061011d57805160ff191683800117855561014b565b8280016001018555821561014b579182015b8281111561014a57825182559160200191906001019061012f565b5b509050610158919061015c565b5090565b61017e91905b8082111561017a576000816000905550600101610162565b5090565b90565b610ce0806101906000396000f3006080604052600436106100ba576000357c0100000000000000000000000000000000000000000000000000000000900463ffffffff16806306fdde03146100bf5780630f75e81f1461014f578063163aa63114610180578063339b6b39146101c95780634294857f1461021c57806354fd4d50146102655780635a9e03ca146102f5578063715018a6146103485780638da5cb5b1461035f578063b75c7dc6146103b6578063bf40b904146103ff578063f2fde38b14610444575b600080fd5b3480156100cb57600080fd5b506100d4610487565b6040518080602001828103825283818151815260200191508051906020019080838360005b838110156101145780820151818401526020810190506100f9565b50505050905090810190601f1680156101415780820380516001836020036101000a031916815260200191505b509250505060405180910390f35b34801561015b57600080fd5b5061017e6004803603810190808035600019169060200190929190505050610525565b005b34801561018c57600080fd5b506101af600480360381019080803560001916906020019092919050505061067a565b604051808215151515815260200191505060405180910390f35b3480156101d557600080fd5b506102026004803603810190808035600019169060200190929190803590602001909291905050506106a2565b604051808215151515815260200191505060405180910390f35b34801561022857600080fd5b5061024b60048036038101908080356000191690602001909291905050506106f3565b604051808215151515815260200191505060405180910390f35b34801561027157600080fd5b5061027a61071b565b6040518080602001828103825283818151815260200191508051906020019080838360005b838110156102ba57808201518184015260208101905061029f565b50505050905090810190601f1680156102e75780820380516001836020036101000a031916815260200191505b509250505060405180910390f35b34801561030157600080fd5b5061032e6004803603810190808035600019169060200190929190803590602001909291905050506107b9565b604051808215151515815260200191505060405180910390f35b34801561035457600080fd5b5061035d610809565b005b34801561036b57600080fd5b5061037461090b565b604051808273ffffffffffffffffffffffffffffffffffffffff1673ffffffffffffffffffffffffffffffffffffffff16815260200191505060405180910390f35b3480156103c257600080fd5b506103e56004803603810190808035600019169060200190929190505050610930565b604051808215151515815260200191505060405180910390f35b34801561040b57600080fd5b5061042e6004803603810190808035600019169060200190929190505050610a89565b6040518082815260200191505060405180910390f35b34801561045057600080fd5b50610485600480360381019080803573ffffffffffffffffffffffffffffffffffffffff169060200190929190505050610b53565b005b60018054600181600116156101000203166002900480601f01602080910402602001604051908101604052809291908181526020018280546001816001161561010002031660029004801561051d5780601f106104f25761010080835404028352916020019161051d565b820191906000526020600020905b81548152906001019060200180831161050057829003601f168201915b505050505081565b6000809054906101000a900473ffffffffffffffffffffffffffffffffffffffff1673ffffffffffffffffffffffffffffffffffffffff163373ffffffffffffffffffffffffffffffffffffffff1614151561058057600080fd5b8061058a8161067a565b151515610625576040517f08c379a000000000000000000000000000000000000000000000000000000000815260040180806020018281038252603a8152602001807f4572726f723a204f6e6c792068617368657320746861742068617665206e6f7481526020017f206265656e206973737565642063616e2062652069737375656400000000000081525060400191505060405180910390fd5b436003600084600019166000191681526020019081526020016000208190555081600019167f01a1249f2caa0445b8391e02413d26f0d409dabe5330cd1d04d3d0801fc42db360405160405180910390a25050565b6000806003600084600019166000191681526020019081526020016000205414159050919050565b60008160046000856000191660001916815260200190815260200160002054111580156106eb575060006004600085600019166000191681526020019081526020016000205414155b905092915050565b6000806004600084600019166000191681526020019081526020016000205414159050919050565b60028054600181600116156101000203166002900480601f0160208091040260200160405190810160405280929190818152602001828054600181600116156101000203166002900480156107b15780601f10610786576101008083540402835291602001916107b1565b820191906000526020600020905b81548152906001019060200180831161079457829003601f168201915b505050505081565b60008060036000856000191660001916815260200190815260200160002054141580156108015750816003600085600019166000191681526020019081526020016000205411155b905092915050565b6000809054906101000a900473ffffffffffffffffffffffffffffffffffffffff1673ffffffffffffffffffffffffffffffffffffffff163373ffffffffffffffffffffffffffffffffffffffff1614151561086457600080fd5b6000809054906101000a900473ffffffffffffffffffffffffffffffffffffffff1673ffffffffffffffffffffffffffffffffffffffff167ff8df31144d9c2f0f6b59d69b8b98abd5459d07f2742c4df920b25aae33c6482060405160405180910390a260008060006101000a81548173ffffffffffffffffffffffffffffffffffffffff021916908373ffffffffffffffffffffffffffffffffffffffff160217905550565b6000809054906101000a900473ffffffffffffffffffffffffffffffffffffffff1681565b60008060009054906101000a900473ffffffffffffffffffffffffffffffffffffffff1673ffffffffffffffffffffffffffffffffffffffff163373ffffffffffffffffffffffffffffffffffffffff1614151561098d57600080fd5b81610997816106f3565b151515610a32576040517f08c379a00000000000000000000000000000000000000000000000000000000081526004018080602001828103825260278152602001807f4572726f723a204861736820686173206265656e207265766f6b65642070726581526020017f76696f75736c790000000000000000000000000000000000000000000000000081525060400191505060405180910390fd5b436004600085600019166000191681526020019081526020016000208190555082600019167f7283b5ab9758f7fba773279e4fd50ea7b136bd1d8371dcae9c5ce529c55343d760405160405180910390a250919050565b600081610a958161067a565b1515610b2f576040517f08c379a00000000000000000000000000000000000000000000000000000000081526004018080602001828103825260318152602001807f4572726f723a204f6e6c792069737375656420646f63756d656e74206861736881526020017f65732063616e206265207265766f6b656400000000000000000000000000000081525060400191505060405180910390fd5b60036000846000191660001916815260200190815260200160002054915050919050565b6000809054906101000a900473ffffffffffffffffffffffffffffffffffffffff1673ffffffffffffffffffffffffffffffffffffffff163373ffffffffffffffffffffffffffffffffffffffff16141515610bae57600080fd5b610bb781610bba565b50565b600073ffffffffffffffffffffffffffffffffffffffff168173ffffffffffffffffffffffffffffffffffffffff1614151515610bf657600080fd5b8073ffffffffffffffffffffffffffffffffffffffff166000809054906101000a900473ffffffffffffffffffffffffffffffffffffffff1673ffffffffffffffffffffffffffffffffffffffff167f8be0079c531659141344cd1fd0a4f28419497f9722a3daafe3b4186f6b6457e060405160405180910390a3806000806101000a81548173ffffffffffffffffffffffffffffffffffffffff021916908373ffffffffffffffffffffffffffffffffffffffff160217905550505600a165627a7a72305820ff90cde13f69cd732a84d71f903138ffee1c09ccd80e878aacc60cc25d630f080029",
  "source": "pragma solidity ^0.4.24;\n\nimport \"openzeppelin-solidity/contracts/ownership/Ownable.sol\";\n\n\ncontract DocumentStore is Ownable {\n  string public name;\n  string public version = \"2.2.0\";\n\n  /// A mapping of the document hash to the block number that was issued\n  mapping(bytes32 => uint) documentIssued;\n  /// A mapping of the hash of the claim being revoked to the revocation block number\n  mapping(bytes32 => uint) documentRevoked;\n\n  event DocumentIssued(bytes32 indexed document);\n  event DocumentRevoked(\n    bytes32 indexed document\n  );\n\n  constructor(\n    string _name\n  ) public\n  {\n    name = _name;\n  }\n\n  function issue(\n    bytes32 document\n  ) public onlyOwner onlyNotIssued(document)\n  {\n    documentIssued[document] = block.number;\n    emit DocumentIssued(document);\n  }\n\n  function getIssuedBlock(\n    bytes32 document\n  ) public onlyIssued(document) view returns (uint)\n  {\n    return documentIssued[document];\n  }\n\n  function isIssued(\n    bytes32 document\n  ) public view returns (bool)\n  {\n    return (documentIssued[document] != 0);\n  }\n\n  function isIssuedBefore(\n    bytes32 document,\n    uint blockNumber\n  ) public view returns (bool)\n  {\n    return documentIssued[document] != 0 && documentIssued[document] <= blockNumber;\n  }\n\n  function revoke(\n    bytes32 document\n  ) public onlyOwner onlyNotRevoked(document) returns (bool)\n  {\n    documentRevoked[document] = block.number;\n    emit DocumentRevoked(document);\n  }\n\n  function isRevoked(\n    bytes32 document\n  ) public view returns (bool)\n  {\n    return documentRevoked[document] != 0;\n  }\n\n  function isRevokedBefore(\n    bytes32 document,\n    uint blockNumber\n  ) public view returns (bool)\n  {\n    return documentRevoked[document] <= blockNumber && documentRevoked[document] != 0;\n  }\n\n  modifier onlyIssued(bytes32 document) {\n    require(isIssued(document), \"Error: Only issued document hashes can be revoked\");\n    _;\n  }\n\n  modifier onlyNotIssued(bytes32 document) {\n    require(!isIssued(document), \"Error: Only hashes that have not been issued can be issued\");\n    _;\n  }\n\n  modifier onlyNotRevoked(bytes32 claim) {\n    require(!isRevoked(claim), \"Error: Hash has been revoked previously\");\n    _;\n  }\n}\n",
  "sourcePath": "/Users/rjc/Projects/DLT_Project/certificate-contract/contracts/DocumentStore.sol",
  "compiler": {
    "name": "solc",
    "version": "0.4.24+commit.e67f0147.Emscripten.clang"
  },
  "schemaVersion": "2.0.1",
  "updatedAt": "2018-11-01T06:54:40.394Z"
}