{
  "contractName": "DocumentStore",
  "abi": [
    {
      "constant": true,
      "inputs": [],
      "name": "name",
      "outputs": [
        {
          "name": "",
          "type": "string"
        }
      ],
      "payable": false,
      "stateMutability": "view",
      "type": "function"
    },
    {
      "constant": true,
      "inputs": [],
      "name": "version",
      "outputs": [
        {
          "name": "",
          "type": "string"
        }
      ],
      "payable": false,
      "stateMutability": "view",
      "type": "function"
    },
    {
      "constant": false,
      "inputs": [],
      "name": "renounceOwnership",
      "outputs": [],
      "payable": false,
      "stateMutability": "nonpayable",
      "type": "function"
    },
    {
      "constant": true,
      "inputs": [],
      "name": "owner",
      "outputs": [
        {
          "name": "",
          "type": "address"
        }
      ],
      "payable": false,
      "stateMutability": "view",
      "type": "function"
    },
    {
      "constant": false,
      "inputs": [
        {
          "name": "_newOwner",
          "type": "address"
        }
      ],
      "name": "transferOwnership",
      "outputs": [],
      "payable": false,
      "stateMutability": "nonpayable",
      "type": "function"
    },
    {
      "inputs": [
        {
          "name": "_name",
          "type": "string"
        }
      ],
      "payable": false,
      "stateMutability": "nonpayable",
      "type": "constructor"
    },
    {
      "anonymous": false,
      "inputs": [
        {
          "indexed": true,
          "name": "document",
          "type": "bytes32"
        }
      ],
      "name": "DocumentIssued",
      "type": "event"
    },
    {
      "anonymous": false,
      "inputs": [
        {
          "indexed": true,
          "name": "document",
          "type": "bytes32"
        }
      ],
      "name": "DocumentRevoked",
      "type": "event"
    },
    {
      "anonymous": false,
      "inputs": [
        {
          "indexed": true,
          "name": "previousOwner",
          "type": "address"
        }
      ],
      "name": "OwnershipRenounced",
      "type": "event"
    },
    {
      "anonymous": false,
      "inputs": [
        {
          "indexed": true,
          "name": "previousOwner",
          "type": "address"
        },
        {
          "indexed": true,
          "name": "newOwner",
          "type": "address"
        }
      ],
      "name": "OwnershipTransferred",
      "type": "event"
    },
    {
      "constant": false,
      "inputs": [
        {
          "name": "document",
          "type": "bytes32"
        }
      ],
      "name": "issue",
      "outputs": [],
      "payable": false,
      "stateMutability": "nonpayable",
      "type": "function"
    },
    {
      "constant": false,
      "inputs": [
        {
          "name": "documents",
          "type": "bytes32[]"
        }
      ],
      "name": "bulkIssue",
      "outputs": [],
      "payable": false,
      "stateMutability": "nonpayable",
      "type": "function"
    },
    {
      "constant": true,
      "inputs": [
        {
          "name": "document",
          "type": "bytes32"
        }
      ],
      "name": "getIssuedBlock",
      "outputs": [
        {
          "name": "",
          "type": "uint256"
        }
      ],
      "payable": false,
      "stateMutability": "view",
      "type": "function"
    },
    {
      "constant": true,
      "inputs": [
        {
          "name": "document",
          "type": "bytes32"
        }
      ],
      "name": "isIssued",
      "outputs": [
        {
          "name": "",
          "type": "bool"
        }
      ],
      "payable": false,
      "stateMutability": "view",
      "type": "function"
    },
    {
      "constant": true,
      "inputs": [
        {
          "name": "document",
          "type": "bytes32"
        },
        {
          "name": "blockNumber",
          "type": "uint256"
        }
      ],
      "name": "isIssuedBefore",
      "outputs": [
        {
          "name": "",
          "type": "bool"
        }
      ],
      "payable": false,
      "stateMutability": "view",
      "type": "function"
    },
    {
      "constant": false,
      "inputs": [
        {
          "name": "document",
          "type": "bytes32"
        }
      ],
      "name": "revoke",
      "outputs": [
        {
          "name": "",
          "type": "bool"
        }
      ],
      "payable": false,
      "stateMutability": "nonpayable",
      "type": "function"
    },
    {
      "constant": false,
      "inputs": [
        {
          "name": "documents",
          "type": "bytes32[]"
        }
      ],
      "name": "bulkRevoke",
      "outputs": [],
      "payable": false,
      "stateMutability": "nonpayable",
      "type": "function"
    },
    {
      "constant": true,
      "inputs": [
        {
          "name": "document",
          "type": "bytes32"
        }
      ],
      "name": "isRevoked",
      "outputs": [
        {
          "name": "",
          "type": "bool"
        }
      ],
      "payable": false,
      "stateMutability": "view",
      "type": "function"
    },
    {
      "constant": true,
      "inputs": [
        {
          "name": "document",
          "type": "bytes32"
        },
        {
          "name": "blockNumber",
          "type": "uint256"
        }
      ],
      "name": "isRevokedBefore",
      "outputs": [
        {
          "name": "",
          "type": "bool"
        }
      ],
      "payable": false,
      "stateMutability": "view",
      "type": "function"
    }
  ],
  "bytecode": "0x60c0604052600560808190527f322e322e3100000000000000000000000000000000000000000000000000000060a090815261003e91600291906100e6565b5034801561004b57600080fd5b50604051610ac3380380610ac38339818101604052602081101561006e57600080fd5b81019080805164010000000081111561008657600080fd5b8201602081018481111561009957600080fd5b81516401000000008111828201871017156100b357600080fd5b5050600080546001600160a01b0319163317905580519093506100df92506001915060208401906100e6565b5050610181565b828054600181600116156101000203166002900490600052602060002090601f016020900481019282601f1061012757805160ff1916838001178555610154565b82800160010185558215610154579182015b82811115610154578251825591602001919060010190610139565b50610160929150610164565b5090565b61017e91905b80821115610160576000815560010161016a565b90565b610933806101906000396000f3fe608060405234801561001057600080fd5b50600436106100ea5760003560e01c80635a9e03ca1161008c5780638da5cb5b116100665780638da5cb5b14610375578063b75c7dc614610399578063bf40b904146103b6578063f2fde38b146103e5576100ea565b80635a9e03ca146102a7578063715018a6146102ca5780637df20826146102d2576100ea565b8063339b6b39116100c8578063339b6b39146101bc5780634294857f146101df5780634ada8076146101fc57806354fd4d501461029f576100ea565b806306fdde03146100ef5780630f75e81f1461016c578063163aa6311461018b575b600080fd5b6100f761040b565b6040805160208082528351818301528351919283929083019185019080838360005b83811015610131578181015183820152602001610119565b50505050905090810190601f16801561015e5780820380516001836020036101000a031916815260200191505b509250505060405180910390f35b6101896004803603602081101561018257600080fd5b5035610498565b005b6101a8600480360360208110156101a157600080fd5b5035610531565b604080519115158252519081900360200190f35b6101a8600480360360408110156101d257600080fd5b5080359060200135610545565b6101a8600480360360208110156101f557600080fd5b5035610577565b6101896004803603602081101561021257600080fd5b81019060208101813564010000000081111561022d57600080fd5b82018360208201111561023f57600080fd5b8035906020019184602083028401116401000000008311171561026157600080fd5b91908080602002602001604051908101604052809392919081815260200183836020028082843760009201919091525092955061058b945050505050565b6100f76105c0565b6101a8600480360360408110156102bd57600080fd5b5080359060200135610618565b610189610646565b610189600480360360208110156102e857600080fd5b81019060208101813564010000000081111561030357600080fd5b82018360208201111561031557600080fd5b8035906020019184602083028401116401000000008311171561033757600080fd5b9190808060200260200160405190810160405280939291908181526020018383602002808284376000920191909152509295506106a5945050505050565b61037d6106d5565b604080516001600160a01b039092168252519081900360200190f35b6101a8600480360360208110156103af57600080fd5b50356106e4565b6103d3600480360360208110156103cc57600080fd5b5035610780565b60408051918252519081900360200190f35b610189600480360360208110156103fb57600080fd5b50356001600160a01b03166107db565b60018054604080516020600284861615610100026000190190941693909304601f810184900484028201840190925281815292918301828280156104905780601f1061046557610100808354040283529160200191610490565b820191906000526020600020905b81548152906001019060200180831161047357829003601f168201915b505050505081565b6000546001600160a01b031633146104af57600080fd5b806104b981610531565b156104f55760405162461bcd60e51b815260040180806020018281038252603a8152602001806108c5603a913960400191505060405180910390fd5b6000828152600360205260408082204390555183917f01a1249f2caa0445b8391e02413d26f0d409dabe5330cd1d04d3d0801fc42db391a25050565b600090815260036020526040902054151590565b6000828152600460205260408120548210801590610570575060008381526004602052604090205415155b9392505050565b600090815260046020526040902054151590565b60005b81518110156105bc576105b38282815181106105a657fe5b60200260200101516106e4565b5060010161058e565b5050565b6002805460408051602060018416156101000260001901909316849004601f810184900484028201840190925281815292918301828280156104905780601f1061046557610100808354040283529160200191610490565b6000828152600360205260408120541580159061057057505060009182526003602052604090912054111590565b6000546001600160a01b0316331461065d57600080fd5b600080546040516001600160a01b03909116917ff8df31144d9c2f0f6b59d69b8b98abd5459d07f2742c4df920b25aae33c6482091a2600080546001600160a01b0319169055565b60005b81518110156105bc576106cd8282815181106106c057fe5b6020026020010151610498565b6001016106a8565b6000546001600160a01b031681565b600080546001600160a01b031633146106fc57600080fd5b8161070681610577565b156107425760405162461bcd60e51b815260040180806020018281038252602781526020018061089e6027913960400191505060405180910390fd5b6000838152600460205260408082204390555184917f7283b5ab9758f7fba773279e4fd50ea7b136bd1d8371dcae9c5ce529c55343d791a250919050565b60008161078c81610531565b6107c75760405162461bcd60e51b815260040180806020018281038252603181526020018061086d6031913960400191505060405180910390fd5b505060009081526003602052604090205490565b6000546001600160a01b031633146107f257600080fd5b6107fb816107fe565b50565b6001600160a01b03811661081157600080fd5b600080546040516001600160a01b03808516939216917f8be0079c531659141344cd1fd0a4f28419497f9722a3daafe3b4186f6b6457e091a3600080546001600160a01b0319166001600160a01b039290921691909117905556fe4572726f723a204f6e6c792069737375656420646f63756d656e74206861736865732063616e206265207265766f6b65644572726f723a204861736820686173206265656e207265766f6b65642070726576696f75736c794572726f723a204f6e6c792068617368657320746861742068617665206e6f74206265656e206973737565642063616e20626520697373756564a265627a7a72305820825be2ac3adfa16aa81fc57a6567cc4b1c15a0d64355c124ab6b61595708d38464736f6c634300050a0032",
  "source": "pragma solidity ^0.5.10;\n\nimport \"./Ownable.sol\";\n\ncontract DocumentStore is Ownable {\n  string public name;\n  string public version = \"2.2.1\";\n\n  /// A mapping of the document hash to the block number that was issued\n  mapping(bytes32 => uint) documentIssued;\n  /// A mapping of the hash of the claim being revoked to the revocation block number\n  mapping(bytes32 => uint) documentRevoked;\n\n  event DocumentIssued(bytes32 indexed document);\n  event DocumentRevoked(\n    bytes32 indexed document\n  );\n\n  constructor(\n    string memory _name\n  ) public\n  {\n    name = _name;\n  }\n\n  function issue(\n    bytes32 document\n  ) public onlyOwner onlyNotIssued(document)\n  {\n    documentIssued[document] = block.number;\n    emit DocumentIssued(document);\n  }\n\n  function bulkIssue(\n    bytes32[] memory documents\n  ) public {\n    for (uint i = 0; i < documents.length; i++) {\n      issue(documents[i]);\n    }\n  }\n\n  function getIssuedBlock(\n    bytes32 document\n  ) public onlyIssued(document) view returns (uint)\n  {\n    return documentIssued[document];\n  }\n\n  function isIssued(\n    bytes32 document\n  ) public view returns (bool)\n  {\n    return (documentIssued[document] != 0);\n  }\n\n  function isIssuedBefore(\n    bytes32 document,\n    uint blockNumber\n  ) public view returns (bool)\n  {\n    return documentIssued[document] != 0 && documentIssued[document] <= blockNumber;\n  }\n\n  function revoke(\n    bytes32 document\n  ) public onlyOwner onlyNotRevoked(document) returns (bool)\n  {\n    documentRevoked[document] = block.number;\n    emit DocumentRevoked(document);\n  }\n\n  function bulkRevoke(\n    bytes32[] memory documents\n  ) public {\n    for (uint i = 0; i < documents.length; i++) {\n      revoke(documents[i]);\n    }\n  }\n\n  function isRevoked(\n    bytes32 document\n  ) public view returns (bool)\n  {\n    return documentRevoked[document] != 0;\n  }\n\n  function isRevokedBefore(\n    bytes32 document,\n    uint blockNumber\n  ) public view returns (bool)\n  {\n    return documentRevoked[document] <= blockNumber && documentRevoked[document] != 0;\n  }\n\n  modifier onlyIssued(bytes32 document) {\n    require(isIssued(document), \"Error: Only issued document hashes can be revoked\");\n    _;\n  }\n\n  modifier onlyNotIssued(bytes32 document) {\n    require(!isIssued(document), \"Error: Only hashes that have not been issued can be issued\");\n    _;\n  }\n\n  modifier onlyNotRevoked(bytes32 claim) {\n    require(!isRevoked(claim), \"Error: Hash has been revoked previously\");\n    _;\n  }\n}\n",
  "sourcePath": "./DocumentStore.sol",
  "compiler": {
    "name": "solc",
    "version": "0.5.10+commit.5a6ea5b1.Emscripten.clang"
  },
  "schemaVersion": "3.0.11",
  "updatedAt": "2019-08-08T08:07:09.119Z",
  "devdoc": {
    "methods": {
      "renounceOwnership()": {
        "details": "Allows the current owner to relinquish control of the contract."
      },
      "transferOwnership(address)": {
        "details": "Allows the current owner to transfer control of the contract to a newOwner.",
        "params": {
          "_newOwner": "The address to transfer ownership to."
        }
      }
    }
  },
  "userdoc": {
    "methods": {
      "renounceOwnership()": {
        "notice": "Renouncing to ownership will leave the contract without an owner. It will not be possible to call the functions with the `onlyOwner` modifier anymore."
      }
    }
  }
}