{
  "contractName": "DocumentStore",
  "abi": [
    {
      "constant": true,
      "inputs": [],
      "name": "name",
      "outputs": [
        {
          "name": "",
          "type": "string"
        }
      ],
      "payable": false,
      "stateMutability": "view",
      "type": "function"
    },
    {
      "constant": false,
      "inputs": [],
      "name": "renounceOwnership",
      "outputs": [],
      "payable": false,
      "stateMutability": "nonpayable",
      "type": "function"
    },
    {
      "constant": true,
      "inputs": [],
      "name": "owner",
      "outputs": [
        {
          "name": "",
          "type": "address"
        }
      ],
      "payable": false,
      "stateMutability": "view",
      "type": "function"
    },
    {
      "constant": false,
      "inputs": [
        {
          "name": "_newOwner",
          "type": "address"
        }
      ],
      "name": "transferOwnership",
      "outputs": [],
      "payable": false,
      "stateMutability": "nonpayable",
      "type": "function"
    },
    {
      "inputs": [
        {
          "name": "_name",
          "type": "string"
        }
      ],
      "payable": false,
      "stateMutability": "nonpayable",
      "type": "constructor"
    },
    {
      "anonymous": false,
      "inputs": [
        {
          "indexed": true,
          "name": "document",
          "type": "bytes32"
        }
      ],
      "name": "DocumentIssued",
      "type": "event"
    },
    {
      "anonymous": false,
      "inputs": [
        {
          "indexed": true,
          "name": "document",
          "type": "bytes32"
        }
      ],
      "name": "DocumentRevoked",
      "type": "event"
    },
    {
      "anonymous": false,
      "inputs": [
        {
          "indexed": true,
          "name": "previousOwner",
          "type": "address"
        }
      ],
      "name": "OwnershipRenounced",
      "type": "event"
    },
    {
      "anonymous": false,
      "inputs": [
        {
          "indexed": true,
          "name": "previousOwner",
          "type": "address"
        },
        {
          "indexed": true,
          "name": "newOwner",
          "type": "address"
        }
      ],
      "name": "OwnershipTransferred",
      "type": "event"
    },
    {
      "constant": false,
      "inputs": [
        {
          "name": "document",
          "type": "bytes32"
        }
      ],
      "name": "issue",
      "outputs": [],
      "payable": false,
      "stateMutability": "nonpayable",
      "type": "function"
    },
    {
      "constant": true,
      "inputs": [
        {
          "name": "document",
          "type": "bytes32"
        }
      ],
      "name": "getIssuedBlock",
      "outputs": [
        {
          "name": "",
          "type": "uint256"
        }
      ],
      "payable": false,
      "stateMutability": "view",
      "type": "function"
    },
    {
      "constant": true,
      "inputs": [
        {
          "name": "document",
          "type": "bytes32"
        }
      ],
      "name": "isIssued",
      "outputs": [
        {
          "name": "",
          "type": "bool"
        }
      ],
      "payable": false,
      "stateMutability": "view",
      "type": "function"
    },
    {
      "constant": true,
      "inputs": [
        {
          "name": "document",
          "type": "bytes32"
        },
        {
          "name": "blockNumber",
          "type": "uint256"
        }
      ],
      "name": "isIssuedBefore",
      "outputs": [
        {
          "name": "",
          "type": "bool"
        }
      ],
      "payable": false,
      "stateMutability": "view",
      "type": "function"
    },
    {
      "constant": false,
      "inputs": [
        {
          "name": "document",
          "type": "bytes32"
        }
      ],
      "name": "revoke",
      "outputs": [
        {
          "name": "",
          "type": "bool"
        }
      ],
      "payable": false,
      "stateMutability": "nonpayable",
      "type": "function"
    },
    {
      "constant": true,
      "inputs": [
        {
          "name": "document",
          "type": "bytes32"
        }
      ],
      "name": "isRevoked",
      "outputs": [
        {
          "name": "",
          "type": "bool"
        }
      ],
      "payable": false,
      "stateMutability": "view",
      "type": "function"
    },
    {
      "constant": true,
      "inputs": [
        {
          "name": "document",
          "type": "bytes32"
        },
        {
          "name": "blockNumber",
          "type": "uint256"
        }
      ],
      "name": "isRevokedBefore",
      "outputs": [
        {
          "name": "",
          "type": "bool"
        }
      ],
      "payable": false,
      "stateMutability": "view",
      "type": "function"
    }
  ],
  "bytecode": "0x608060405234801561001057600080fd5b50604051610ceb380380610ceb83398101806040528101908080518201929190505050336000806101000a81548173ffffffffffffffffffffffffffffffffffffffff021916908373ffffffffffffffffffffffffffffffffffffffff1602179055508060019080519060200190610089929190610090565b5050610135565b828054600181600116156101000203166002900490600052602060002090601f016020900481019282601f106100d157805160ff19168380011785556100ff565b828001600101855582156100ff579182015b828111156100fe5782518255916020019190600101906100e3565b5b50905061010c9190610110565b5090565b61013291905b8082111561012e576000816000905550600101610116565b5090565b90565b610ba7806101446000396000f3006080604052600436106100af576000357c0100000000000000000000000000000000000000000000000000000000900463ffffffff16806306fdde03146100b45780630f75e81f14610144578063163aa63114610175578063339b6b39146101be5780634294857f146102115780635a9e03ca1461025a578063715018a6146102ad5780638da5cb5b146102c4578063b75c7dc61461031b578063bf40b90414610364578063f2fde38b146103a9575b600080fd5b3480156100c057600080fd5b506100c96103ec565b6040518080602001828103825283818151815260200191508051906020019080838360005b838110156101095780820151818401526020810190506100ee565b50505050905090810190601f1680156101365780820380516001836020036101000a031916815260200191505b509250505060405180910390f35b34801561015057600080fd5b50610173600480360381019080803560001916906020019092919050505061048a565b005b34801561018157600080fd5b506101a460048036038101908080356000191690602001909291905050506105df565b604051808215151515815260200191505060405180910390f35b3480156101ca57600080fd5b506101f7600480360381019080803560001916906020019092919080359060200190929190505050610607565b604051808215151515815260200191505060405180910390f35b34801561021d57600080fd5b506102406004803603810190808035600019169060200190929190505050610658565b604051808215151515815260200191505060405180910390f35b34801561026657600080fd5b50610293600480360381019080803560001916906020019092919080359060200190929190505050610680565b604051808215151515815260200191505060405180910390f35b3480156102b957600080fd5b506102c26106d0565b005b3480156102d057600080fd5b506102d96107d2565b604051808273ffffffffffffffffffffffffffffffffffffffff1673ffffffffffffffffffffffffffffffffffffffff16815260200191505060405180910390f35b34801561032757600080fd5b5061034a60048036038101908080356000191690602001909291905050506107f7565b604051808215151515815260200191505060405180910390f35b34801561037057600080fd5b506103936004803603810190808035600019169060200190929190505050610950565b6040518082815260200191505060405180910390f35b3480156103b557600080fd5b506103ea600480360381019080803573ffffffffffffffffffffffffffffffffffffffff169060200190929190505050610a1a565b005b60018054600181600116156101000203166002900480601f0160208091040260200160405190810160405280929190818152602001828054600181600116156101000203166002900480156104825780601f1061045757610100808354040283529160200191610482565b820191906000526020600020905b81548152906001019060200180831161046557829003601f168201915b505050505081565b6000809054906101000a900473ffffffffffffffffffffffffffffffffffffffff1673ffffffffffffffffffffffffffffffffffffffff163373ffffffffffffffffffffffffffffffffffffffff161415156104e557600080fd5b806104ef816105df565b15151561058a576040517f08c379a000000000000000000000000000000000000000000000000000000000815260040180806020018281038252603a8152602001807f4572726f723a204f6e6c792068617368657320746861742068617665206e6f7481526020017f206265656e206973737565642063616e2062652069737375656400000000000081525060400191505060405180910390fd5b436002600084600019166000191681526020019081526020016000208190555081600019167f01a1249f2caa0445b8391e02413d26f0d409dabe5330cd1d04d3d0801fc42db360405160405180910390a25050565b6000806002600084600019166000191681526020019081526020016000205414159050919050565b6000816003600085600019166000191681526020019081526020016000205411158015610650575060006003600085600019166000191681526020019081526020016000205414155b905092915050565b6000806003600084600019166000191681526020019081526020016000205414159050919050565b60008060026000856000191660001916815260200190815260200160002054141580156106c85750816002600085600019166000191681526020019081526020016000205411155b905092915050565b6000809054906101000a900473ffffffffffffffffffffffffffffffffffffffff1673ffffffffffffffffffffffffffffffffffffffff163373ffffffffffffffffffffffffffffffffffffffff1614151561072b57600080fd5b6000809054906101000a900473ffffffffffffffffffffffffffffffffffffffff1673ffffffffffffffffffffffffffffffffffffffff167ff8df31144d9c2f0f6b59d69b8b98abd5459d07f2742c4df920b25aae33c6482060405160405180910390a260008060006101000a81548173ffffffffffffffffffffffffffffffffffffffff021916908373ffffffffffffffffffffffffffffffffffffffff160217905550565b6000809054906101000a900473ffffffffffffffffffffffffffffffffffffffff1681565b60008060009054906101000a900473ffffffffffffffffffffffffffffffffffffffff1673ffffffffffffffffffffffffffffffffffffffff163373ffffffffffffffffffffffffffffffffffffffff1614151561085457600080fd5b8161085e81610658565b1515156108f9576040517f08c379a00000000000000000000000000000000000000000000000000000000081526004018080602001828103825260278152602001807f4572726f723a204861736820686173206265656e207265766f6b65642070726581526020017f76696f75736c790000000000000000000000000000000000000000000000000081525060400191505060405180910390fd5b436003600085600019166000191681526020019081526020016000208190555082600019167f7283b5ab9758f7fba773279e4fd50ea7b136bd1d8371dcae9c5ce529c55343d760405160405180910390a250919050565b60008161095c816105df565b15156109f6576040517f08c379a00000000000000000000000000000000000000000000000000000000081526004018080602001828103825260318152602001807f4572726f723a204f6e6c792069737375656420646f63756d656e74206861736881526020017f65732063616e206265207265766f6b656400000000000000000000000000000081525060400191505060405180910390fd5b60026000846000191660001916815260200190815260200160002054915050919050565b6000809054906101000a900473ffffffffffffffffffffffffffffffffffffffff1673ffffffffffffffffffffffffffffffffffffffff163373ffffffffffffffffffffffffffffffffffffffff16141515610a7557600080fd5b610a7e81610a81565b50565b600073ffffffffffffffffffffffffffffffffffffffff168173ffffffffffffffffffffffffffffffffffffffff1614151515610abd57600080fd5b8073ffffffffffffffffffffffffffffffffffffffff166000809054906101000a900473ffffffffffffffffffffffffffffffffffffffff1673ffffffffffffffffffffffffffffffffffffffff167f8be0079c531659141344cd1fd0a4f28419497f9722a3daafe3b4186f6b6457e060405160405180910390a3806000806101000a81548173ffffffffffffffffffffffffffffffffffffffff021916908373ffffffffffffffffffffffffffffffffffffffff160217905550505600a165627a7a72305820f43798d86a4a4b3080bf3a0637fe4cd5de8c0b259f619eace62c77e1960b0fff0029",
  "source": "pragma solidity ^0.4.24;\n\nimport \"openzeppelin-solidity/contracts/ownership/Ownable.sol\";\n\ncontract DocumentStore is Ownable {\n  string public name;\n\n  /// A mapping of the document hash to the block number that was issued\n  mapping(bytes32 => uint) documentIssued;\n  /// A mapping of the hash of the claim being revoked to the revocation block number\n  mapping(bytes32 => uint) documentRevoked;\n\n  event DocumentIssued(bytes32 indexed document);\n  event DocumentRevoked(\n    bytes32 indexed document\n  );\n\n  constructor(\n    string _name\n  ) public\n  {\n    name = _name;\n  }\n\n  function issue(\n    bytes32 document\n  ) public onlyOwner onlyNotIssued(document)\n  {\n    documentIssued[document] = block.number;\n    emit DocumentIssued(document);\n  }\n\n  function getIssuedBlock(\n    bytes32 document\n  ) public onlyIssued(document) view returns (uint)\n  {\n    return documentIssued[document];\n  }\n\n  function isIssued(\n    bytes32 document\n  ) public view returns (bool)\n  {\n    return (documentIssued[document] != 0);\n  }\n\n  function isIssuedBefore(\n    bytes32 document,\n    uint blockNumber\n  ) public view returns (bool)\n  {\n    return documentIssued[document] != 0 && documentIssued[document] <= blockNumber;\n  }\n\n  function revoke(\n    bytes32 document\n  ) public onlyOwner onlyNotRevoked(document) returns (bool)\n  {\n    documentRevoked[document] = block.number;\n    emit DocumentRevoked(document);\n  }\n\n  function isRevoked(\n    bytes32 document\n  ) public view returns (bool)\n  {\n    return documentRevoked[document] != 0;\n  }\n\n  function isRevokedBefore(\n    bytes32 document,\n    uint blockNumber\n  ) public view returns (bool)\n  {\n    return documentRevoked[document] <= blockNumber && documentRevoked[document] != 0;\n  }\n\n  modifier onlyIssued(bytes32 document) {\n    require(isIssued(document), \"Error: Only issued document hashes can be revoked\");\n    _;\n  }\n\n  modifier onlyNotIssued(bytes32 document) {\n    require(!isIssued(document), \"Error: Only hashes that have not been issued can be issued\");\n    _;\n  }\n\n  modifier onlyNotRevoked(bytes32 claim) {\n    require(!isRevoked(claim), \"Error: Hash has been revoked previously\");\n    _;\n  }\n}\n",
  "sourcePath": "/Users/raymondyeh/Desktop/DLT/certificate-contract/contracts/DocumentStore.sol",
  "compiler": {
    "name": "solc",
    "version": "0.4.24+commit.e67f0147.Emscripten.clang"
  },
  "schemaVersion": "2.0.1",
  "updatedAt": "2018-10-09T06:12:46.090Z"
}