{
  "contractName": "DocumentStore",
  "abi": [
    {
      "constant": true,
      "inputs": [],
      "name": "name",
      "outputs": [
        {
          "name": "",
          "type": "string"
        }
      ],
      "payable": false,
      "stateMutability": "view",
      "type": "function"
    },
    {
      "constant": true,
      "inputs": [],
      "name": "version",
      "outputs": [
        {
          "name": "",
          "type": "string"
        }
      ],
      "payable": false,
      "stateMutability": "view",
      "type": "function"
    },
    {
      "constant": false,
      "inputs": [],
      "name": "renounceOwnership",
      "outputs": [],
      "payable": false,
      "stateMutability": "nonpayable",
      "type": "function"
    },
    {
      "constant": true,
      "inputs": [],
      "name": "owner",
      "outputs": [
        {
          "name": "",
          "type": "address"
        }
      ],
      "payable": false,
      "stateMutability": "view",
      "type": "function"
    },
    {
      "constant": true,
      "inputs": [],
      "name": "isOwner",
      "outputs": [
        {
          "name": "",
          "type": "bool"
        }
      ],
      "payable": false,
      "stateMutability": "view",
      "type": "function"
    },
    {
      "constant": false,
      "inputs": [
        {
          "name": "newOwner",
          "type": "address"
        }
      ],
      "name": "transferOwnership",
      "outputs": [],
      "payable": false,
      "stateMutability": "nonpayable",
      "type": "function"
    },
    {
      "inputs": [
        {
          "name": "_name",
          "type": "string"
        }
      ],
      "payable": false,
      "stateMutability": "nonpayable",
      "type": "constructor"
    },
    {
      "anonymous": false,
      "inputs": [
        {
          "indexed": true,
          "name": "document",
          "type": "bytes32"
        }
      ],
      "name": "DocumentIssued",
      "type": "event"
    },
    {
      "anonymous": false,
      "inputs": [
        {
          "indexed": true,
          "name": "document",
          "type": "bytes32"
        }
      ],
      "name": "DocumentRevoked",
      "type": "event"
    },
    {
      "anonymous": false,
      "inputs": [
        {
          "indexed": true,
          "name": "previousOwner",
          "type": "address"
        },
        {
          "indexed": true,
          "name": "newOwner",
          "type": "address"
        }
      ],
      "name": "OwnershipTransferred",
      "type": "event"
    },
    {
      "constant": false,
      "inputs": [
        {
          "name": "document",
          "type": "bytes32"
        }
      ],
      "name": "issue",
      "outputs": [],
      "payable": false,
      "stateMutability": "nonpayable",
      "type": "function"
    },
    {
      "constant": false,
      "inputs": [
        {
          "name": "documents",
          "type": "bytes32[]"
        }
      ],
      "name": "bulkIssue",
      "outputs": [],
      "payable": false,
      "stateMutability": "nonpayable",
      "type": "function"
    },
    {
      "constant": true,
      "inputs": [
        {
          "name": "document",
          "type": "bytes32"
        }
      ],
      "name": "getIssuedBlock",
      "outputs": [
        {
          "name": "",
          "type": "uint256"
        }
      ],
      "payable": false,
      "stateMutability": "view",
      "type": "function"
    },
    {
      "constant": true,
      "inputs": [
        {
          "name": "document",
          "type": "bytes32"
        }
      ],
      "name": "isIssued",
      "outputs": [
        {
          "name": "",
          "type": "bool"
        }
      ],
      "payable": false,
      "stateMutability": "view",
      "type": "function"
    },
    {
      "constant": true,
      "inputs": [
        {
          "name": "document",
          "type": "bytes32"
        },
        {
          "name": "blockNumber",
          "type": "uint256"
        }
      ],
      "name": "isIssuedBefore",
      "outputs": [
        {
          "name": "",
          "type": "bool"
        }
      ],
      "payable": false,
      "stateMutability": "view",
      "type": "function"
    },
    {
      "constant": false,
      "inputs": [
        {
          "name": "document",
          "type": "bytes32"
        }
      ],
      "name": "revoke",
      "outputs": [
        {
          "name": "",
          "type": "bool"
        }
      ],
      "payable": false,
      "stateMutability": "nonpayable",
      "type": "function"
    },
    {
      "constant": false,
      "inputs": [
        {
          "name": "documents",
          "type": "bytes32[]"
        }
      ],
      "name": "bulkRevoke",
      "outputs": [],
      "payable": false,
      "stateMutability": "nonpayable",
      "type": "function"
    },
    {
      "constant": true,
      "inputs": [
        {
          "name": "document",
          "type": "bytes32"
        }
      ],
      "name": "isRevoked",
      "outputs": [
        {
          "name": "",
          "type": "bool"
        }
      ],
      "payable": false,
      "stateMutability": "view",
      "type": "function"
    },
    {
      "constant": true,
      "inputs": [
        {
          "name": "document",
          "type": "bytes32"
        },
        {
          "name": "blockNumber",
          "type": "uint256"
        }
      ],
      "name": "isRevokedBefore",
      "outputs": [
        {
          "name": "",
          "type": "bool"
        }
      ],
      "payable": false,
      "stateMutability": "view",
      "type": "function"
    },
    {
      "constant": true,
      "inputs": [
        {
          "name": "document",
          "type": "bytes32"
        }
      ],
      "name": "getRevokedBlock",
      "outputs": [
        {
          "name": "",
          "type": "uint256"
        }
      ],
      "payable": false,
      "stateMutability": "view",
      "type": "function"
    }
  ],
  "bytecode": "0x60c0604052600560808190527f322e342e3000000000000000000000000000000000000000000000000000000060a090815261003e916002919061011a565b5034801561004b57600080fd5b50604051610cf9380380610cf98339818101604052602081101561006e57600080fd5b81019080805164010000000081111561008657600080fd5b8201602081018481111561009957600080fd5b81516401000000008111828201871017156100b357600080fd5b5050600080546001600160a01b03191633178082556040519295506001600160a01b0316935091507f8be0079c531659141344cd1fd0a4f28419497f9722a3daafe3b4186f6b6457e0908290a3805161011390600190602084019061011a565b50506101b5565b828054600181600116156101000203166002900490600052602060002090601f016020900481019282601f1061015b57805160ff1916838001178555610188565b82800160010185558215610188579182015b8281111561018857825182559160200191906001019061016d565b50610194929150610198565b5090565b6101b291905b80821115610194576000815560010161019e565b90565b610b35806101c46000396000f3fe608060405234801561001057600080fd5b50600436106101005760003560e01c8063715018a611610097578063b75c7dc611610066578063b75c7dc6146103b7578063bf40b904146103d4578063e009130f14610403578063f2fde38b1461042057610100565b8063715018a6146102e05780637df20826146102e85780638da5cb5b1461038b5780638f32d59b146103af57610100565b80634294857f116100d35780634294857f146101f55780634ada80761461021257806354fd4d50146102b55780635a9e03ca146102bd57610100565b806306fdde03146101055780630f75e81f14610182578063163aa631146101a1578063339b6b39146101d2575b600080fd5b61010d610446565b6040805160208082528351818301528351919283929083019185019080838360005b8381101561014757818101518382015260200161012f565b50505050905090810190601f1680156101745780820380516001836020036101000a031916815260200191505b509250505060405180910390f35b61019f6004803603602081101561019857600080fd5b50356104d3565b005b6101be600480360360208110156101b757600080fd5b503561059c565b604080519115158252519081900360200190f35b6101be600480360360408110156101e857600080fd5b50803590602001356105b0565b6101be6004803603602081101561020b57600080fd5b50356105e2565b61019f6004803603602081101561022857600080fd5b81019060208101813564010000000081111561024357600080fd5b82018360208201111561025557600080fd5b8035906020019184602083028401116401000000008311171561027757600080fd5b9190808060200260200160405190810160405280939291908181526020018383602002808284376000920191909152509295506105f6945050505050565b61010d61062b565b6101be600480360360408110156102d357600080fd5b5080359060200135610683565b61019f6106b1565b61019f600480360360208110156102fe57600080fd5b81019060208101813564010000000081111561031957600080fd5b82018360208201111561032b57600080fd5b8035906020019184602083028401116401000000008311171561034d57600080fd5b919080806020026020016040519081016040528093929190818152602001838360200280828437600092019190915250929550610742945050505050565b610393610772565b604080516001600160a01b039092168252519081900360200190f35b6101be610781565b6101be600480360360208110156103cd57600080fd5b5035610792565b6103f1600480360360208110156103ea57600080fd5b503561085f565b60408051918252519081900360200190f35b6103f16004803603602081101561041957600080fd5b50356108ba565b61019f6004803603602081101561043657600080fd5b50356001600160a01b0316610915565b60018054604080516020600284861615610100026000190190941693909304601f810184900484028201840190925281815292918301828280156104cb5780601f106104a0576101008083540402835291602001916104cb565b820191906000526020600020905b8154815290600101906020018083116104ae57829003601f168201915b505050505081565b6104db610781565b61051a576040805162461bcd60e51b81526020600482018190526024820152600080516020610ab9833981519152604482015290519081900360640190fd5b806105248161059c565b156105605760405162461bcd60e51b815260040180806020018281038252603a815260200180610a56603a913960400191505060405180910390fd5b6000828152600360205260408082204390555183917f01a1249f2caa0445b8391e02413d26f0d409dabe5330cd1d04d3d0801fc42db391a25050565b600090815260036020526040902054151590565b60008281526004602052604081205482108015906105db575060008381526004602052604090205415155b9392505050565b600090815260046020526040902054151590565b60005b81518110156106275761061e82828151811061061157fe5b6020026020010151610792565b506001016105f9565b5050565b6002805460408051602060018416156101000260001901909316849004601f810184900484028201840190925281815292918301828280156104cb5780601f106104a0576101008083540402835291602001916104cb565b600082815260036020526040812054158015906105db57505060009182526003602052604090912054111590565b6106b9610781565b6106f8576040805162461bcd60e51b81526020600482018190526024820152600080516020610ab9833981519152604482015290519081900360640190fd5b600080546040516001600160a01b03909116907f8be0079c531659141344cd1fd0a4f28419497f9722a3daafe3b4186f6b6457e0908390a3600080546001600160a01b0319169055565b60005b81518110156106275761076a82828151811061075d57fe5b60200260200101516104d3565b600101610745565b6000546001600160a01b031690565b6000546001600160a01b0316331490565b600061079c610781565b6107db576040805162461bcd60e51b81526020600482018190526024820152600080516020610ab9833981519152604482015290519081900360640190fd5b816107e5816105e2565b156108215760405162461bcd60e51b8152600401808060200182810382526027815260200180610a096027913960400191505060405180910390fd5b6000838152600460205260408082204390555184917f7283b5ab9758f7fba773279e4fd50ea7b136bd1d8371dcae9c5ce529c55343d791a250919050565b60008161086b8161059c565b6108a65760405162461bcd60e51b8152600401808060200182810382526028815260200180610ad96028913960400191505060405180910390fd5b505060009081526003602052604090205490565b6000816108c6816105e2565b6109015760405162461bcd60e51b8152600401808060200182810382526029815260200180610a906029913960400191505060405180910390fd5b505060009081526004602052604090205490565b61091d610781565b61095c576040805162461bcd60e51b81526020600482018190526024820152600080516020610ab9833981519152604482015290519081900360640190fd5b61096581610968565b50565b6001600160a01b0381166109ad5760405162461bcd60e51b8152600401808060200182810382526026815260200180610a306026913960400191505060405180910390fd5b600080546040516001600160a01b03808516939216917f8be0079c531659141344cd1fd0a4f28419497f9722a3daafe3b4186f6b6457e091a3600080546001600160a01b0319166001600160a01b039290921691909117905556fe4572726f723a204861736820686173206265656e207265766f6b65642070726576696f75736c794f776e61626c653a206e6577206f776e657220697320746865207a65726f20616464726573734572726f723a204f6e6c792068617368657320746861742068617665206e6f74206265656e206973737565642063616e206265206973737565644572726f723a20446f63756d656e74206861736820686173206e6f74206265656e207265766f6b65644f776e61626c653a2063616c6c6572206973206e6f7420746865206f776e65724572726f723a20446f63756d656e74206861736820686173206e6f74206265656e20697373756564a265627a7a72305820e7b2bd5c3f96ce5d5e4f9e9785f9375861774c16f30c10c1b10225a67f4bdf1464736f6c634300050a0032",
  "source": "pragma solidity ^0.5.10;\n\nimport \"./Ownable.sol\";\n\ncontract DocumentStore is Ownable {\n    string public name;\n    string public version = \"2.4.0\";\n\n    /// A mapping of the document hash to the block number that was issued\n    mapping(bytes32 => uint256) documentIssued;\n    /// A mapping of the hash of the claim being revoked to the revocation block number\n    mapping(bytes32 => uint256) documentRevoked;\n\n    event DocumentIssued(bytes32 indexed document);\n    event DocumentRevoked(bytes32 indexed document);\n\n    constructor(string memory _name) public {\n        name = _name;\n    }\n\n    function issue(bytes32 document) public onlyOwner onlyNotIssued(document) {\n        documentIssued[document] = block.number;\n        emit DocumentIssued(document);\n    }\n\n    function bulkIssue(bytes32[] memory documents) public {\n        for (uint256 i = 0; i < documents.length; i++) {\n            issue(documents[i]);\n        }\n    }\n\n    function getIssuedBlock(bytes32 document)\n        public\n        view\n        onlyIssued(document)\n        returns (uint256)\n    {\n        return documentIssued[document];\n    }\n\n    function isIssued(bytes32 document) public view returns (bool) {\n        return (documentIssued[document] != 0);\n    }\n\n    function isIssuedBefore(bytes32 document, uint256 blockNumber)\n        public\n        view\n        returns (bool)\n    {\n        return\n            documentIssued[document] != 0 && documentIssued[document] <= blockNumber;\n    }\n\n    function revoke(bytes32 document)\n        public\n        onlyOwner\n        onlyNotRevoked(document)\n        returns (bool)\n    {\n        documentRevoked[document] = block.number;\n        emit DocumentRevoked(document);\n    }\n\n    function bulkRevoke(bytes32[] memory documents) public {\n        for (uint256 i = 0; i < documents.length; i++) {\n            revoke(documents[i]);\n        }\n    }\n\n    function isRevoked(bytes32 document) public view returns (bool) {\n        return documentRevoked[document] != 0;\n    }\n\n    function isRevokedBefore(bytes32 document, uint256 blockNumber)\n        public\n        view\n        returns (bool)\n    {\n        return\n            documentRevoked[document] <= blockNumber && documentRevoked[document] != 0;\n    }\n\n    function getRevokedBlock(bytes32 document)\n        public\n        view\n        onlyRevoked(document)\n        returns (uint256)\n    {\n        return documentRevoked[document];\n    }\n\n    modifier onlyIssued(bytes32 document) {\n        require(\n            isIssued(document),\n            \"Error: Document hash has not been issued\"\n        );\n        _;\n    }\n\n    modifier onlyRevoked(bytes32 document) {\n        require(\n            isRevoked(document),\n            \"Error: Document hash has not been revoked\"\n        );\n        _;\n    }\n\n    modifier onlyNotIssued(bytes32 document) {\n        require(\n            !isIssued(document),\n            \"Error: Only hashes that have not been issued can be issued\"\n        );\n        _;\n    }\n\n    modifier onlyNotRevoked(bytes32 claim) {\n        require(!isRevoked(claim), \"Error: Hash has been revoked previously\");\n        _;\n    }\n}\n",
  "sourcePath": "./DocumentStore.sol",
  "compiler": {
    "name": "solc",
    "version": "0.5.10+commit.5a6ea5b1.Emscripten.clang"
  },
  "schemaVersion": "3.0.11",
  "updatedAt": "2019-08-20T06:00:01.530Z",
  "devdoc": {
    "methods": {
      "isOwner()": {
        "details": "Returns true if the caller is the current owner."
      },
      "owner()": {
        "details": "Returns the address of the current owner."
      },
      "renounceOwnership()": {
        "details": "Leaves the contract without owner. It will not be possible to call `onlyOwner` functions anymore. Can only be called by the current owner.     * NOTE: Renouncing ownership will leave the contract without an owner, thereby removing any functionality that is only available to the owner."
      },
      "transferOwnership(address)": {
        "details": "Transfers ownership of the contract to a new account (`newOwner`). Can only be called by the current owner."
      }
    }
  },
  "userdoc": {
    "methods": {}
  }
}