{
  "contractName": "DocumentStore",
  "abi": [
    {
      "anonymous": false,
      "inputs": [
        {
          "indexed": true,
          "internalType": "bytes32",
          "name": "document",
          "type": "bytes32"
        }
      ],
      "name": "DocumentIssued",
      "type": "event"
    },
    {
      "anonymous": false,
      "inputs": [
        {
          "indexed": true,
          "internalType": "bytes32",
          "name": "document",
          "type": "bytes32"
        }
      ],
      "name": "DocumentRevoked",
      "type": "event"
    },
    {
      "anonymous": false,
      "inputs": [
        {
          "indexed": true,
          "internalType": "address",
          "name": "previousOwner",
          "type": "address"
        },
        {
          "indexed": true,
          "internalType": "address",
          "name": "newOwner",
          "type": "address"
        }
      ],
      "name": "OwnershipTransferred",
      "type": "event"
    },
    {
      "constant": true,
      "inputs": [
        {
          "internalType": "bytes32",
          "name": "",
          "type": "bytes32"
        }
      ],
      "name": "documentIssued",
      "outputs": [
        {
          "internalType": "uint256",
          "name": "",
          "type": "uint256"
        }
      ],
      "payable": false,
      "stateMutability": "view",
      "type": "function"
    },
    {
      "constant": true,
      "inputs": [
        {
          "internalType": "bytes32",
          "name": "",
          "type": "bytes32"
        }
      ],
      "name": "documentRevoked",
      "outputs": [
        {
          "internalType": "uint256",
          "name": "",
          "type": "uint256"
        }
      ],
      "payable": false,
      "stateMutability": "view",
      "type": "function"
    },
    {
      "constant": true,
      "inputs": [],
      "name": "isOwner",
      "outputs": [
        {
          "internalType": "bool",
          "name": "",
          "type": "bool"
        }
      ],
      "payable": false,
      "stateMutability": "view",
      "type": "function"
    },
    {
      "constant": true,
      "inputs": [],
      "name": "name",
      "outputs": [
        {
          "internalType": "string",
          "name": "",
          "type": "string"
        }
      ],
      "payable": false,
      "stateMutability": "view",
      "type": "function"
    },
    {
      "constant": true,
      "inputs": [],
      "name": "owner",
      "outputs": [
        {
          "internalType": "address",
          "name": "",
          "type": "address"
        }
      ],
      "payable": false,
      "stateMutability": "view",
      "type": "function"
    },
    {
      "constant": false,
      "inputs": [],
      "name": "renounceOwnership",
      "outputs": [],
      "payable": false,
      "stateMutability": "nonpayable",
      "type": "function"
    },
    {
      "constant": false,
      "inputs": [
        {
          "internalType": "address",
          "name": "newOwner",
          "type": "address"
        }
      ],
      "name": "transferOwnership",
      "outputs": [],
      "payable": false,
      "stateMutability": "nonpayable",
      "type": "function"
    },
    {
      "constant": true,
      "inputs": [],
      "name": "version",
      "outputs": [
        {
          "internalType": "string",
          "name": "",
          "type": "string"
        }
      ],
      "payable": false,
      "stateMutability": "view",
      "type": "function"
    },
    {
      "constant": false,
      "inputs": [
        {
          "internalType": "string",
          "name": "_name",
          "type": "string"
        },
        {
          "internalType": "address",
          "name": "owner",
          "type": "address"
        }
      ],
      "name": "initialize",
      "outputs": [],
      "payable": false,
      "stateMutability": "nonpayable",
      "type": "function"
    },
    {
      "constant": false,
      "inputs": [
        {
          "internalType": "address",
          "name": "sender",
          "type": "address"
        }
      ],
      "name": "initialize",
      "outputs": [],
      "payable": false,
      "stateMutability": "nonpayable",
      "type": "function"
    },
    {
      "constant": false,
      "inputs": [
        {
          "internalType": "bytes32",
          "name": "document",
          "type": "bytes32"
        }
      ],
      "name": "issue",
      "outputs": [],
      "payable": false,
      "stateMutability": "nonpayable",
      "type": "function"
    },
    {
      "constant": false,
      "inputs": [
        {
          "internalType": "bytes32[]",
          "name": "documents",
          "type": "bytes32[]"
        }
      ],
      "name": "bulkIssue",
      "outputs": [],
      "payable": false,
      "stateMutability": "nonpayable",
      "type": "function"
    },
    {
      "constant": true,
      "inputs": [
        {
          "internalType": "bytes32",
          "name": "document",
          "type": "bytes32"
        }
      ],
      "name": "getIssuedBlock",
      "outputs": [
        {
          "internalType": "uint256",
          "name": "",
          "type": "uint256"
        }
      ],
      "payable": false,
      "stateMutability": "view",
      "type": "function"
    },
    {
      "constant": true,
      "inputs": [
        {
          "internalType": "bytes32",
          "name": "document",
          "type": "bytes32"
        }
      ],
      "name": "isIssued",
      "outputs": [
        {
          "internalType": "bool",
          "name": "",
          "type": "bool"
        }
      ],
      "payable": false,
      "stateMutability": "view",
      "type": "function"
    },
    {
      "constant": true,
      "inputs": [
        {
          "internalType": "bytes32",
          "name": "document",
          "type": "bytes32"
        },
        {
          "internalType": "uint256",
          "name": "blockNumber",
          "type": "uint256"
        }
      ],
      "name": "isIssuedBefore",
      "outputs": [
        {
          "internalType": "bool",
          "name": "",
          "type": "bool"
        }
      ],
      "payable": false,
      "stateMutability": "view",
      "type": "function"
    },
    {
      "constant": false,
      "inputs": [
        {
          "internalType": "bytes32",
          "name": "document",
          "type": "bytes32"
        }
      ],
      "name": "revoke",
      "outputs": [
        {
          "internalType": "bool",
          "name": "",
          "type": "bool"
        }
      ],
      "payable": false,
      "stateMutability": "nonpayable",
      "type": "function"
    },
    {
      "constant": false,
      "inputs": [
        {
          "internalType": "bytes32[]",
          "name": "documents",
          "type": "bytes32[]"
        }
      ],
      "name": "bulkRevoke",
      "outputs": [],
      "payable": false,
      "stateMutability": "nonpayable",
      "type": "function"
    },
    {
      "constant": true,
      "inputs": [
        {
          "internalType": "bytes32",
          "name": "document",
          "type": "bytes32"
        }
      ],
      "name": "isRevoked",
      "outputs": [
        {
          "internalType": "bool",
          "name": "",
          "type": "bool"
        }
      ],
      "payable": false,
      "stateMutability": "view",
      "type": "function"
    },
    {
      "constant": true,
      "inputs": [
        {
          "internalType": "bytes32",
          "name": "document",
          "type": "bytes32"
        },
        {
          "internalType": "uint256",
          "name": "blockNumber",
          "type": "uint256"
        }
      ],
      "name": "isRevokedBefore",
      "outputs": [
        {
          "internalType": "bool",
          "name": "",
          "type": "bool"
        }
      ],
      "payable": false,
      "stateMutability": "view",
      "type": "function"
    }
  ],
  "bytecode": "0x60806040526115dc806100136000396000f3fe608060405234801561001057600080fd5b50600436106101215760003560e01c8063715018a6116100ad5780638f32d59b116100715780638f32d59b146106a9578063b75c7dc6146106cb578063bf40b90414610711578063c4d66de814610753578063f2fde38b1461079757610121565b8063715018a6146104805780637ab4339d1461048a5780637df20826146105655780638bc36c911461061d5780638da5cb5b1461065f57610121565b8063339b6b39116100f4578063339b6b391461025f5780634294857f146102af5780634ada8076146102f557806354fd4d50146103ad5780635a9e03ca1461043057610121565b806306fdde03146101265780630f75e81f146101a9578063163aa631146101d757806333358d2d1461021d575b600080fd5b61012e6107db565b6040518080602001828103825283818151815260200191508051906020019080838360005b8381101561016e578082015181840152602081019050610153565b50505050905090810190601f16801561019b5780820380516001836020036101000a031916815260200191505b509250505060405180910390f35b6101d5600480360360208110156101bf57600080fd5b8101908080359060200190929190505050610879565b005b610203600480360360208110156101ed57600080fd5b810190808035906020019092919050505061099c565b604051808215151515815260200191505060405180910390f35b6102496004803603602081101561023357600080fd5b81019080803590602001909291905050506109bc565b6040518082815260200191505060405180910390f35b6102956004803603604081101561027557600080fd5b8101908080359060200190929190803590602001909291905050506109d4565b604051808215151515815260200191505060405180910390f35b6102db600480360360208110156102c557600080fd5b8101908080359060200190929190505050610a15565b604051808215151515815260200191505060405180910390f35b6103ab6004803603602081101561030b57600080fd5b810190808035906020019064010000000081111561032857600080fd5b82018360208201111561033a57600080fd5b8035906020019184602083028401116401000000008311171561035c57600080fd5b919080806020026020016040519081016040528093929190818152602001838360200280828437600081840152601f19601f820116905080830192505050505050509192919290505050610a35565b005b6103b5610a72565b6040518080602001828103825283818151815260200191508051906020019080838360005b838110156103f55780820151818401526020810190506103da565b50505050905090810190601f1680156104225780820380516001836020036101000a031916815260200191505b509250505060405180910390f35b6104666004803603604081101561044657600080fd5b810190808035906020019092919080359060200190929190505050610b10565b604051808215151515815260200191505060405180910390f35b610488610b50565b005b610563600480360360408110156104a057600080fd5b81019080803590602001906401000000008111156104bd57600080fd5b8201836020820111156104cf57600080fd5b803590602001918460018302840111640100000000831117156104f157600080fd5b91908080601f016020809104026020016040519081016040528093929190818152602001838380828437600081840152601f19601f820116905080830192505050505050509192919290803573ffffffffffffffffffffffffffffffffffffffff169060200190929190505050610c8b565b005b61061b6004803603602081101561057b57600080fd5b810190808035906020019064010000000081111561059857600080fd5b8201836020820111156105aa57600080fd5b803590602001918460208302840111640100000000831117156105cc57600080fd5b919080806020026020016040519081016040528093929190818152602001838360200280828437600081840152601f19601f820116905080830192505050505050509192919290505050610df8565b005b6106496004803603602081101561063357600080fd5b8101908080359060200190929190505050610e34565b6040518082815260200191505060405180910390f35b610667610e4c565b604051808273ffffffffffffffffffffffffffffffffffffffff1673ffffffffffffffffffffffffffffffffffffffff16815260200191505060405180910390f35b6106b1610e76565b604051808215151515815260200191505060405180910390f35b6106f7600480360360208110156106e157600080fd5b8101908080359060200190929190505050610ed5565b604051808215151515815260200191505060405180910390f35b61073d6004803603602081101561072757600080fd5b8101908080359060200190929190505050610ffc565b6040518082815260200191505060405180910390f35b6107956004803603602081101561076957600080fd5b81019080803573ffffffffffffffffffffffffffffffffffffffff169060200190929190505050611079565b005b6107d9600480360360208110156107ad57600080fd5b81019080803573ffffffffffffffffffffffffffffffffffffffff169060200190929190505050611237565b005b60668054600181600116156101000203166002900480601f0160208091040260200160405190810160405280929190818152602001828054600181600116156101000203166002900480156108715780601f1061084657610100808354040283529160200191610871565b820191906000526020600020905b81548152906001019060200180831161085457829003601f168201915b505050505081565b610881610e76565b6108f3576040517f08c379a00000000000000000000000000000000000000000000000000000000081526004018080602001828103825260208152602001807f4f776e61626c653a2063616c6c6572206973206e6f7420746865206f776e657281525060200191505060405180910390fd5b806108fd8161099c565b15610953576040517f08c379a000000000000000000000000000000000000000000000000000000000815260040180806020018281038252603a815260200180611540603a913960400191505060405180910390fd5b436068600084815260200190815260200160002081905550817f01a1249f2caa0445b8391e02413d26f0d409dabe5330cd1d04d3d0801fc42db360405160405180910390a25050565b600080606860008481526020019081526020016000205414159050919050565b60686020528060005260406000206000915090505481565b600081606960008581526020019081526020016000205411158015610a0d57506000606960008581526020019081526020016000205414155b905092915050565b600080606960008481526020019081526020016000205414159050919050565b60008090505b8151811015610a6e57610a60828281518110610a5357fe5b6020026020010151610ed5565b508080600101915050610a3b565b5050565b60678054600181600116156101000203166002900480601f016020809104026020016040519081016040528092919081815260200182805460018160011615610100020316600290048015610b085780601f10610add57610100808354040283529160200191610b08565b820191906000526020600020905b815481529060010190602001808311610aeb57829003601f168201915b505050505081565b600080606860008581526020019081526020016000205414158015610b48575081606860008581526020019081526020016000205411155b905092915050565b610b58610e76565b610bca576040517f08c379a00000000000000000000000000000000000000000000000000000000081526004018080602001828103825260208152602001807f4f776e61626c653a2063616c6c6572206973206e6f7420746865206f776e657281525060200191505060405180910390fd5b600073ffffffffffffffffffffffffffffffffffffffff16603360009054906101000a900473ffffffffffffffffffffffffffffffffffffffff1673ffffffffffffffffffffffffffffffffffffffff167f8be0079c531659141344cd1fd0a4f28419497f9722a3daafe3b4186f6b6457e060405160405180910390a36000603360006101000a81548173ffffffffffffffffffffffffffffffffffffffff021916908373ffffffffffffffffffffffffffffffffffffffff160217905550565b600060019054906101000a900460ff1680610caa5750610ca96112bd565b5b80610cc157506000809054906101000a900460ff16155b610d16576040517f08c379a000000000000000000000000000000000000000000000000000000000815260040180806020018281038252602e81526020018061157a602e913960400191505060405180910390fd5b60008060019054906101000a900460ff161590508015610d66576001600060016101000a81548160ff02191690831515021790555060016000806101000a81548160ff0219169083151502179055505b6040518060400160405280600581526020017f332e302e3000000000000000000000000000000000000000000000000000000081525060679080519060200190610db192919061141c565b508260669080519060200190610dc892919061141c565b50610dd282611079565b8015610df35760008060016101000a81548160ff0219169083151502179055505b505050565b60008090505b8151811015610e3057610e23828281518110610e1657fe5b6020026020010151610879565b8080600101915050610dfe565b5050565b60696020528060005260406000206000915090505481565b6000603360009054906101000a900473ffffffffffffffffffffffffffffffffffffffff16905090565b6000603360009054906101000a900473ffffffffffffffffffffffffffffffffffffffff1673ffffffffffffffffffffffffffffffffffffffff16610eb96112ce565b73ffffffffffffffffffffffffffffffffffffffff1614905090565b6000610edf610e76565b610f51576040517f08c379a00000000000000000000000000000000000000000000000000000000081526004018080602001828103825260208152602001807f4f776e61626c653a2063616c6c6572206973206e6f7420746865206f776e657281525060200191505060405180910390fd5b81610f5b81610a15565b15610fb1576040517f08c379a00000000000000000000000000000000000000000000000000000000081526004018080602001828103825260278152602001806114f36027913960400191505060405180910390fd5b436069600085815260200190815260200160002081905550827f7283b5ab9758f7fba773279e4fd50ea7b136bd1d8371dcae9c5ce529c55343d760405160405180910390a250919050565b6000816110088161099c565b61105d576040517f08c379a00000000000000000000000000000000000000000000000000000000081526004018080602001828103825260318152602001806114c26031913960400191505060405180910390fd5b6068600084815260200190815260200160002054915050919050565b600060019054906101000a900460ff168061109857506110976112bd565b5b806110af57506000809054906101000a900460ff16155b611104576040517f08c379a000000000000000000000000000000000000000000000000000000000815260040180806020018281038252602e81526020018061157a602e913960400191505060405180910390fd5b60008060019054906101000a900460ff161590508015611154576001600060016101000a81548160ff02191690831515021790555060016000806101000a81548160ff0219169083151502179055505b81603360006101000a81548173ffffffffffffffffffffffffffffffffffffffff021916908373ffffffffffffffffffffffffffffffffffffffff160217905550603360009054906101000a900473ffffffffffffffffffffffffffffffffffffffff1673ffffffffffffffffffffffffffffffffffffffff16600073ffffffffffffffffffffffffffffffffffffffff167f8be0079c531659141344cd1fd0a4f28419497f9722a3daafe3b4186f6b6457e060405160405180910390a380156112335760008060016101000a81548160ff0219169083151502179055505b5050565b61123f610e76565b6112b1576040517f08c379a00000000000000000000000000000000000000000000000000000000081526004018080602001828103825260208152602001807f4f776e61626c653a2063616c6c6572206973206e6f7420746865206f776e657281525060200191505060405180910390fd5b6112ba816112d6565b50565b600080303b90506000811491505090565b600033905090565b600073ffffffffffffffffffffffffffffffffffffffff168173ffffffffffffffffffffffffffffffffffffffff16141561135c576040517f08c379a000000000000000000000000000000000000000000000000000000000815260040180806020018281038252602681526020018061151a6026913960400191505060405180910390fd5b8073ffffffffffffffffffffffffffffffffffffffff16603360009054906101000a900473ffffffffffffffffffffffffffffffffffffffff1673ffffffffffffffffffffffffffffffffffffffff167f8be0079c531659141344cd1fd0a4f28419497f9722a3daafe3b4186f6b6457e060405160405180910390a380603360006101000a81548173ffffffffffffffffffffffffffffffffffffffff021916908373ffffffffffffffffffffffffffffffffffffffff16021790555050565b828054600181600116156101000203166002900490600052602060002090601f016020900481019282601f1061145d57805160ff191683800117855561148b565b8280016001018555821561148b579182015b8281111561148a57825182559160200191906001019061146f565b5b509050611498919061149c565b5090565b6114be91905b808211156114ba5760008160009055506001016114a2565b5090565b9056fe4572726f723a204f6e6c792069737375656420646f63756d656e74206861736865732063616e206265207265766f6b65644572726f723a204861736820686173206265656e207265766f6b65642070726576696f75736c794f776e61626c653a206e6577206f776e657220697320746865207a65726f20616464726573734572726f723a204f6e6c792068617368657320746861742068617665206e6f74206265656e206973737565642063616e20626520697373756564436f6e747261637420696e7374616e63652068617320616c7265616479206265656e20696e697469616c697a6564a265627a7a723158205797b5329dc85ae5f201e17c7d6aa2cbf35b5087b3e8d17c5802e7d01d2321cc64736f6c634300050c0032",
  "source": "pragma solidity ^0.5.10;\n\nimport \"@openzeppelin/upgrades/contracts/Initializable.sol\";\nimport \"@openzeppelin/contracts-ethereum-package/contracts/ownership/Ownable.sol\";\n\ncontract DocumentStore is Initializable, Ownable {\n  string public name;\n  string public version;\n\n  /// A mapping of the document hash to the block number that was issued\n  mapping(bytes32 => uint256) public documentIssued;\n  /// A mapping of the hash of the claim being revoked to the revocation block number\n  mapping(bytes32 => uint256) public documentRevoked;\n\n  event DocumentIssued(bytes32 indexed document);\n  event DocumentRevoked(bytes32 indexed document);\n\n  function initialize(string memory _name, address owner) public initializer {\n    version = \"3.0.0\";\n    name = _name;\n    Ownable.initialize(owner);\n  }\n\n  function issue(bytes32 document) public onlyOwner onlyNotIssued(document) {\n    documentIssued[document] = block.number;\n    emit DocumentIssued(document);\n  }\n\n  function bulkIssue(bytes32[] memory documents) public {\n    for (uint256 i = 0; i < documents.length; i++) {\n      issue(documents[i]);\n    }\n  }\n\n  function getIssuedBlock(bytes32 document) public view onlyIssued(document) returns (uint256) {\n    return documentIssued[document];\n  }\n\n  function isIssued(bytes32 document) public view returns (bool) {\n    return (documentIssued[document] != 0);\n  }\n\n  function isIssuedBefore(bytes32 document, uint256 blockNumber) public view returns (bool) {\n    return documentIssued[document] != 0 && documentIssued[document] <= blockNumber;\n  }\n\n  function revoke(bytes32 document) public onlyOwner onlyNotRevoked(document) returns (bool) {\n    documentRevoked[document] = block.number;\n    emit DocumentRevoked(document);\n  }\n\n  function bulkRevoke(bytes32[] memory documents) public {\n    for (uint256 i = 0; i < documents.length; i++) {\n      revoke(documents[i]);\n    }\n  }\n\n  function isRevoked(bytes32 document) public view returns (bool) {\n    return documentRevoked[document] != 0;\n  }\n\n  function isRevokedBefore(bytes32 document, uint256 blockNumber) public view returns (bool) {\n    return documentRevoked[document] <= blockNumber && documentRevoked[document] != 0;\n  }\n\n  modifier onlyIssued(bytes32 document) {\n    require(isIssued(document), \"Error: Only issued document hashes can be revoked\");\n    _;\n  }\n\n  modifier onlyNotIssued(bytes32 document) {\n    require(!isIssued(document), \"Error: Only hashes that have not been issued can be issued\");\n    _;\n  }\n\n  modifier onlyNotRevoked(bytes32 claim) {\n    require(!isRevoked(claim), \"Error: Hash has been revoked previously\");\n    _;\n  }\n}\n",
  "sourcePath": "/home/raymond/Desktop/govtech/oa/document-store-contract/contracts/DocumentStore.sol",
  "compiler": {
    "name": "solc",
    "version": "0.5.12+commit.7709ece9.Emscripten.clang"
  },
  "schemaVersion": "3.0.20",
  "updatedAt": "2020-01-16T09:09:28.483Z",
  "devdoc": {
    "methods": {
      "initialize(address)": {
        "details": "Initializes the contract setting the deployer as the initial owner."
      },
      "isOwner()": {
        "details": "Returns true if the caller is the current owner."
      },
      "owner()": {
        "details": "Returns the address of the current owner."
      },
      "renounceOwnership()": {
        "details": "Leaves the contract without owner. It will not be possible to call `onlyOwner` functions anymore. Can only be called by the current owner.     * > Note: Renouncing ownership will leave the contract without an owner, thereby removing any functionality that is only available to the owner."
      },
      "transferOwnership(address)": {
        "details": "Transfers ownership of the contract to a new account (`newOwner`). Can only be called by the current owner."
      }
    }
  },
  "userdoc": {
    "methods": {}
  }
}