{
  "contractName": "DocumentStore",
  "abi": [
    {
      "constant": true,
      "inputs": [],
      "name": "name",
      "outputs": [
        {
          "name": "",
          "type": "string"
        }
      ],
      "payable": false,
      "stateMutability": "view",
      "type": "function"
    },
    {
      "constant": true,
      "inputs": [],
      "name": "version",
      "outputs": [
        {
          "name": "",
          "type": "string"
        }
      ],
      "payable": false,
      "stateMutability": "view",
      "type": "function"
    },
    {
      "constant": false,
      "inputs": [],
      "name": "renounceOwnership",
      "outputs": [],
      "payable": false,
      "stateMutability": "nonpayable",
      "type": "function"
    },
    {
      "constant": true,
      "inputs": [],
      "name": "owner",
      "outputs": [
        {
          "name": "",
          "type": "address"
        }
      ],
      "payable": false,
      "stateMutability": "view",
      "type": "function"
    },
    {
      "constant": false,
      "inputs": [
        {
          "name": "_newOwner",
          "type": "address"
        }
      ],
      "name": "transferOwnership",
      "outputs": [],
      "payable": false,
      "stateMutability": "nonpayable",
      "type": "function"
    },
    {
      "inputs": [
        {
          "name": "_name",
          "type": "string"
        }
      ],
      "payable": false,
      "stateMutability": "nonpayable",
      "type": "constructor"
    },
    {
      "anonymous": false,
      "inputs": [
        {
          "indexed": true,
          "name": "document",
          "type": "bytes32"
        }
      ],
      "name": "DocumentIssued",
      "type": "event"
    },
    {
      "anonymous": false,
      "inputs": [
        {
          "indexed": true,
          "name": "document",
          "type": "bytes32"
        }
      ],
      "name": "DocumentRevoked",
      "type": "event"
    },
    {
      "anonymous": false,
      "inputs": [
        {
          "indexed": true,
          "name": "previousOwner",
          "type": "address"
        }
      ],
      "name": "OwnershipRenounced",
      "type": "event"
    },
    {
      "anonymous": false,
      "inputs": [
        {
          "indexed": true,
          "name": "previousOwner",
          "type": "address"
        },
        {
          "indexed": true,
          "name": "newOwner",
          "type": "address"
        }
      ],
      "name": "OwnershipTransferred",
      "type": "event"
    },
    {
      "constant": false,
      "inputs": [
        {
          "name": "document",
          "type": "bytes32"
        }
      ],
      "name": "issue",
      "outputs": [],
      "payable": false,
      "stateMutability": "nonpayable",
      "type": "function"
    },
    {
      "constant": false,
      "inputs": [
        {
          "name": "documents",
          "type": "bytes32[]"
        }
      ],
      "name": "bulkIssue",
      "outputs": [],
      "payable": false,
      "stateMutability": "nonpayable",
      "type": "function"
    },
    {
      "constant": true,
      "inputs": [
        {
          "name": "document",
          "type": "bytes32"
        }
      ],
      "name": "getIssuedBlock",
      "outputs": [
        {
          "name": "",
          "type": "uint256"
        }
      ],
      "payable": false,
      "stateMutability": "view",
      "type": "function"
    },
    {
      "constant": true,
      "inputs": [
        {
          "name": "document",
          "type": "bytes32"
        }
      ],
      "name": "isIssued",
      "outputs": [
        {
          "name": "",
          "type": "bool"
        }
      ],
      "payable": false,
      "stateMutability": "view",
      "type": "function"
    },
    {
      "constant": true,
      "inputs": [
        {
          "name": "document",
          "type": "bytes32"
        },
        {
          "name": "blockNumber",
          "type": "uint256"
        }
      ],
      "name": "isIssuedBefore",
      "outputs": [
        {
          "name": "",
          "type": "bool"
        }
      ],
      "payable": false,
      "stateMutability": "view",
      "type": "function"
    },
    {
      "constant": false,
      "inputs": [
        {
          "name": "document",
          "type": "bytes32"
        }
      ],
      "name": "revoke",
      "outputs": [
        {
          "name": "",
          "type": "bool"
        }
      ],
      "payable": false,
      "stateMutability": "nonpayable",
      "type": "function"
    },
    {
      "constant": false,
      "inputs": [
        {
          "name": "documents",
          "type": "bytes32[]"
        }
      ],
      "name": "bulkRevoke",
      "outputs": [],
      "payable": false,
      "stateMutability": "nonpayable",
      "type": "function"
    },
    {
      "constant": true,
      "inputs": [
        {
          "name": "document",
          "type": "bytes32"
        }
      ],
      "name": "isRevoked",
      "outputs": [
        {
          "name": "",
          "type": "bool"
        }
      ],
      "payable": false,
      "stateMutability": "view",
      "type": "function"
    },
    {
      "constant": true,
      "inputs": [
        {
          "name": "document",
          "type": "bytes32"
        },
        {
          "name": "blockNumber",
          "type": "uint256"
        }
      ],
      "name": "isRevokedBefore",
      "outputs": [
        {
          "name": "",
          "type": "bool"
        }
      ],
      "payable": false,
      "stateMutability": "view",
      "type": "function"
    }
  ],
  "bytecode": "0x60806040526040805190810160405280600581526020017f322e322e310000000000000000000000000000000000000000000000000000008152506002908051906020019061004f9291906100dc565b5034801561005c57600080fd5b50604051610fd3380380610fd383398101806040528101908080518201929190505050336000806101000a81548173ffffffffffffffffffffffffffffffffffffffff021916908373ffffffffffffffffffffffffffffffffffffffff16021790555080600190805190602001906100d59291906100dc565b5050610181565b828054600181600116156101000203166002900490600052602060002090601f016020900481019282601f1061011d57805160ff191683800117855561014b565b8280016001018555821561014b579182015b8281111561014a57825182559160200191906001019061012f565b5b509050610158919061015c565b5090565b61017e91905b8082111561017a576000816000905550600101610162565b5090565b90565b610e43806101906000396000f3006080604052600436106100d0576000357c0100000000000000000000000000000000000000000000000000000000900463ffffffff16806306fdde03146100d55780630f75e81f14610165578063163aa63114610196578063339b6b39146101df5780634294857f146102325780634ada80761461027b57806354fd4d50146102e15780635a9e03ca14610371578063715018a6146103c45780637df20826146103db5780638da5cb5b14610441578063b75c7dc614610498578063bf40b904146104e1578063f2fde38b14610526575b600080fd5b3480156100e157600080fd5b506100ea610569565b6040518080602001828103825283818151815260200191508051906020019080838360005b8381101561012a57808201518184015260208101905061010f565b50505050905090810190601f1680156101575780820380516001836020036101000a031916815260200191505b509250505060405180910390f35b34801561017157600080fd5b506101946004803603810190808035600019169060200190929190505050610607565b005b3480156101a257600080fd5b506101c5600480360381019080803560001916906020019092919050505061075c565b604051808215151515815260200191505060405180910390f35b3480156101eb57600080fd5b50610218600480360381019080803560001916906020019092919080359060200190929190505050610784565b604051808215151515815260200191505060405180910390f35b34801561023e57600080fd5b5061026160048036038101908080356000191690602001909291905050506107d5565b604051808215151515815260200191505060405180910390f35b34801561028757600080fd5b506102df600480360381019080803590602001908201803590602001908080602002602001604051908101604052809392919081815260200183836020028082843782019150505050505091929192905050506107fd565b005b3480156102ed57600080fd5b506102f661083e565b6040518080602001828103825283818151815260200191508051906020019080838360005b8381101561033657808201518184015260208101905061031b565b50505050905090810190601f1680156103635780820380516001836020036101000a031916815260200191505b509250505060405180910390f35b34801561037d57600080fd5b506103aa6004803603810190808035600019169060200190929190803590602001909291905050506108dc565b604051808215151515815260200191505060405180910390f35b3480156103d057600080fd5b506103d961092c565b005b3480156103e757600080fd5b5061043f60048036038101908080359060200190820180359060200190808060200260200160405190810160405280939291908181526020018383602002808284378201915050505050509192919290505050610a2e565b005b34801561044d57600080fd5b50610456610a6e565b604051808273ffffffffffffffffffffffffffffffffffffffff1673ffffffffffffffffffffffffffffffffffffffff16815260200191505060405180910390f35b3480156104a457600080fd5b506104c76004803603810190808035600019169060200190929190505050610a93565b604051808215151515815260200191505060405180910390f35b3480156104ed57600080fd5b506105106004803603810190808035600019169060200190929190505050610bec565b6040518082815260200191505060405180910390f35b34801561053257600080fd5b50610567600480360381019080803573ffffffffffffffffffffffffffffffffffffffff169060200190929190505050610cb6565b005b60018054600181600116156101000203166002900480601f0160208091040260200160405190810160405280929190818152602001828054600181600116156101000203166002900480156105ff5780601f106105d4576101008083540402835291602001916105ff565b820191906000526020600020905b8154815290600101906020018083116105e257829003601f168201915b505050505081565b6000809054906101000a900473ffffffffffffffffffffffffffffffffffffffff1673ffffffffffffffffffffffffffffffffffffffff163373ffffffffffffffffffffffffffffffffffffffff1614151561066257600080fd5b8061066c8161075c565b151515610707576040517f08c379a000000000000000000000000000000000000000000000000000000000815260040180806020018281038252603a8152602001807f4572726f723a204f6e6c792068617368657320746861742068617665206e6f7481526020017f206265656e206973737565642063616e2062652069737375656400000000000081525060400191505060405180910390fd5b436003600084600019166000191681526020019081526020016000208190555081600019167f01a1249f2caa0445b8391e02413d26f0d409dabe5330cd1d04d3d0801fc42db360405160405180910390a25050565b6000806003600084600019166000191681526020019081526020016000205414159050919050565b60008160046000856000191660001916815260200190815260200160002054111580156107cd575060006004600085600019166000191681526020019081526020016000205414155b905092915050565b6000806004600084600019166000191681526020019081526020016000205414159050919050565b60008090505b815181101561083a5761082c828281518110151561081d57fe5b90602001906020020151610a93565b508080600101915050610803565b5050565b60028054600181600116156101000203166002900480601f0160208091040260200160405190810160405280929190818152602001828054600181600116156101000203166002900480156108d45780601f106108a9576101008083540402835291602001916108d4565b820191906000526020600020905b8154815290600101906020018083116108b757829003601f168201915b505050505081565b60008060036000856000191660001916815260200190815260200160002054141580156109245750816003600085600019166000191681526020019081526020016000205411155b905092915050565b6000809054906101000a900473ffffffffffffffffffffffffffffffffffffffff1673ffffffffffffffffffffffffffffffffffffffff163373ffffffffffffffffffffffffffffffffffffffff1614151561098757600080fd5b6000809054906101000a900473ffffffffffffffffffffffffffffffffffffffff1673ffffffffffffffffffffffffffffffffffffffff167ff8df31144d9c2f0f6b59d69b8b98abd5459d07f2742c4df920b25aae33c6482060405160405180910390a260008060006101000a81548173ffffffffffffffffffffffffffffffffffffffff021916908373ffffffffffffffffffffffffffffffffffffffff160217905550565b60008090505b8151811015610a6a57610a5d8282815181101515610a4e57fe5b90602001906020020151610607565b8080600101915050610a34565b5050565b6000809054906101000a900473ffffffffffffffffffffffffffffffffffffffff1681565b60008060009054906101000a900473ffffffffffffffffffffffffffffffffffffffff1673ffffffffffffffffffffffffffffffffffffffff163373ffffffffffffffffffffffffffffffffffffffff16141515610af057600080fd5b81610afa816107d5565b151515610b95576040517f08c379a00000000000000000000000000000000000000000000000000000000081526004018080602001828103825260278152602001807f4572726f723a204861736820686173206265656e207265766f6b65642070726581526020017f76696f75736c790000000000000000000000000000000000000000000000000081525060400191505060405180910390fd5b436004600085600019166000191681526020019081526020016000208190555082600019167f7283b5ab9758f7fba773279e4fd50ea7b136bd1d8371dcae9c5ce529c55343d760405160405180910390a250919050565b600081610bf88161075c565b1515610c92576040517f08c379a00000000000000000000000000000000000000000000000000000000081526004018080602001828103825260318152602001807f4572726f723a204f6e6c792069737375656420646f63756d656e74206861736881526020017f65732063616e206265207265766f6b656400000000000000000000000000000081525060400191505060405180910390fd5b60036000846000191660001916815260200190815260200160002054915050919050565b6000809054906101000a900473ffffffffffffffffffffffffffffffffffffffff1673ffffffffffffffffffffffffffffffffffffffff163373ffffffffffffffffffffffffffffffffffffffff16141515610d1157600080fd5b610d1a81610d1d565b50565b600073ffffffffffffffffffffffffffffffffffffffff168173ffffffffffffffffffffffffffffffffffffffff1614151515610d5957600080fd5b8073ffffffffffffffffffffffffffffffffffffffff166000809054906101000a900473ffffffffffffffffffffffffffffffffffffffff1673ffffffffffffffffffffffffffffffffffffffff167f8be0079c531659141344cd1fd0a4f28419497f9722a3daafe3b4186f6b6457e060405160405180910390a3806000806101000a81548173ffffffffffffffffffffffffffffffffffffffff021916908373ffffffffffffffffffffffffffffffffffffffff160217905550505600a165627a7a72305820c148f5a7c3bb44ed3c6adef1bbe43d445d9e2be81d4310ca3950b57bae84b61c0029",
  "source": "pragma solidity ^0.4.24;\n\nimport \"openzeppelin-solidity/contracts/ownership/Ownable.sol\";\n\ncontract DocumentStore is Ownable {\n  string public name;\n  string public version = \"2.2.1\";\n\n  /// A mapping of the document hash to the block number that was issued\n  mapping(bytes32 => uint) documentIssued;\n  /// A mapping of the hash of the claim being revoked to the revocation block number\n  mapping(bytes32 => uint) documentRevoked;\n\n  event DocumentIssued(bytes32 indexed document);\n  event DocumentRevoked(\n    bytes32 indexed document\n  );\n\n  constructor(\n    string _name\n  ) public\n  {\n    name = _name;\n  }\n\n  function issue(\n    bytes32 document\n  ) public onlyOwner onlyNotIssued(document)\n  {\n    documentIssued[document] = block.number;\n    emit DocumentIssued(document);\n  }\n\n  function bulkIssue(\n    bytes32[] documents\n  ) public {\n    for (uint i = 0; i < documents.length; i++) {\n      issue(documents[i]);\n    }\n  }\n\n  function getIssuedBlock(\n    bytes32 document\n  ) public onlyIssued(document) view returns (uint)\n  {\n    return documentIssued[document];\n  }\n\n  function isIssued(\n    bytes32 document\n  ) public view returns (bool)\n  {\n    return (documentIssued[document] != 0);\n  }\n\n  function isIssuedBefore(\n    bytes32 document,\n    uint blockNumber\n  ) public view returns (bool)\n  {\n    return documentIssued[document] != 0 && documentIssued[document] <= blockNumber;\n  }\n\n  function revoke(\n    bytes32 document\n  ) public onlyOwner onlyNotRevoked(document) returns (bool)\n  {\n    documentRevoked[document] = block.number;\n    emit DocumentRevoked(document);\n  }\n\n  function bulkRevoke(\n    bytes32[] documents\n  ) public {\n    for (uint i = 0; i < documents.length; i++) {\n      revoke(documents[i]);\n    }\n  }\n\n  function isRevoked(\n    bytes32 document\n  ) public view returns (bool)\n  {\n    return documentRevoked[document] != 0;\n  }\n\n  function isRevokedBefore(\n    bytes32 document,\n    uint blockNumber\n  ) public view returns (bool)\n  {\n    return documentRevoked[document] <= blockNumber && documentRevoked[document] != 0;\n  }\n\n  modifier onlyIssued(bytes32 document) {\n    require(isIssued(document), \"Error: Only issued document hashes can be revoked\");\n    _;\n  }\n\n  modifier onlyNotIssued(bytes32 document) {\n    require(!isIssued(document), \"Error: Only hashes that have not been issued can be issued\");\n    _;\n  }\n\n  modifier onlyNotRevoked(bytes32 claim) {\n    require(!isRevoked(claim), \"Error: Hash has been revoked previously\");\n    _;\n  }\n}\n",
  "sourcePath": "/home/raymond/Desktop/govtech/opencerts/contract/contracts/DocumentStore.sol",
  "compiler": {
    "name": "solc",
    "version": "0.4.25+commit.59dbf8f1.Emscripten.clang"
  },
  "schemaVersion": "2.0.2",
  "updatedAt": "2019-08-06T09:17:40.419Z"
}