{
  "contractName": "Merkle",
  "abi": [
    {
      "constant": true,
      "inputs": [
        {
          "name": "_proof",
          "type": "bytes32[]"
        },
        {
          "name": "_hash",
          "type": "bytes32"
        },
        {
          "name": "_root",
          "type": "bytes32"
        }
      ],
      "name": "verifyMerkleTreeProof",
      "outputs": [
        {
          "name": "",
          "type": "bool"
        }
      ],
      "payable": false,
      "stateMutability": "pure",
      "type": "function"
    }
  ],
  "bytecode": "0x6060604052341561000f57600080fd5b61023a8061001e6000396000f300606060405260043610610041576000357c0100000000000000000000000000000000000000000000000000000000900463ffffffff168063235717bf14610046575b600080fd5b341561005157600080fd5b6100b860048080359060200190820180359060200190808060200260200160405190810160405280939291908181526020018383602002808284378201915050505050509190803560001916906020019091908035600019169060200190919050506100d2565b604051808215151515815260200191505060405180910390f35b6000806000849150600090505b8551816fffffffffffffffffffffffffffffffff1610156101f85785816fffffffffffffffffffffffffffffffff1681518110151561011a57fe5b906020019060200201516000191682600019161015610191578186826fffffffffffffffffffffffffffffffff1681518110151561015457fe5b90602001906020020151604051808360001916600019168152602001826000191660001916815260200192505050604051809103902091506101eb565b85816fffffffffffffffffffffffffffffffff168151811015156101b157fe5b9060200190602002015182604051808360001916600019168152602001826000191660001916815260200192505050604051809103902091505b80806001019150506100df565b83600019168260001916149250505093925050505600a165627a7a72305820dedd5668441081aea2a0ec722980c95e7ea9b753e109427c502c4ed1d85367140029",
  "source": "pragma solidity ^0.4.18;\n\ncontract Merkle {\n  function verifyMerkleTreeProof(\n    bytes32[] _proof,\n    bytes32 _hash,\n    bytes32 _root\n  ) public pure returns (bool) {\n    bytes32 hash = _hash;\n    for(uint128 i=0; i<_proof.length; i++){\n      if(hash < _proof[i]){\n        hash = keccak256(hash, _proof[i]);\n      }else{\n        hash = keccak256(_proof[i], hash);\n      }\n    }\n    \n    return hash == _root;\n  }\n}\n",
  "sourcePath": "/home/yongwen/work/dlt/certificate-contract/contracts/Merkle.sol",
  "compiler": {
    "name": "solc",
    "version": "0.4.18+commit.9cf6e910.Emscripten.clang"
  },
  "schemaVersion": "1.0.1",
  "updatedAt": "2018-01-08T08:59:37.930Z"
}